{
  "contractName": "Consumer",
  "abi": [
    {
      "constant": true,
      "inputs": [
        {
          "name": "",
          "type": "uint256"
        }
      ],
      "name": "proposals",
      "outputs": [
        {
          "name": "escrowparticipantaddress",
          "type": "address"
        },
        {
          "name": "escrowparticipantname",
          "type": "bytes32"
        },
        {
          "name": "escrowparticipantsinitialamountputin",
          "type": "uint256"
        },
        {
          "name": "escrowparticipanttimestamp",
          "type": "bytes32"
        },
        {
          "name": "escrowparticipantcount",
          "type": "uint256"
        }
      ],
      "payable": false,
      "stateMutability": "view",
      "type": "function",
      "signature": "0x013cf08b"
    },
    {
      "constant": false,
      "inputs": [
        {
          "name": "message",
          "type": "bytes32"
        },
        {
          "name": "sig",
          "type": "bytes"
        },
        {
          "name": "myman",
          "type": "address"
        }
      ],
      "name": "recoverSigner",
      "outputs": [
        {
          "name": "",
          "type": "bool"
        }
      ],
      "payable": true,
      "stateMutability": "payable",
      "type": "function",
      "signature": "0x135aa1a4"
    },
    {
      "constant": true,
      "inputs": [],
      "name": "escrowbalance",
      "outputs": [
        {
          "name": "",
          "type": "uint256"
        }
      ],
      "payable": false,
      "stateMutability": "view",
      "type": "function",
      "signature": "0x1dec8f5e"
    },
    {
      "constant": true,
      "inputs": [
        {
          "name": "",
          "type": "uint256"
        }
      ],
      "name": "consumerstore",
      "outputs": [
        {
          "name": "customername",
          "type": "bytes32"
        },
        {
          "name": "customerage",
          "type": "uint256"
        },
        {
          "name": "price",
          "type": "uint256"
        },
        {
          "name": "thecustomerscount",
          "type": "uint256"
        },
        {
          "name": "consumeraddress",
          "type": "address"
        },
        {
          "name": "RFIDS",
          "type": "bytes32"
        }
      ],
      "payable": false,
      "stateMutability": "view",
      "type": "function",
      "signature": "0x28ce3f01"
    },
    {
      "constant": true,
      "inputs": [
        {
          "name": "yourcurrentowner",
          "type": "address"
        },
        {
          "name": "hash",
          "type": "bytes32"
        },
        {
          "name": "v",
          "type": "uint8"
        },
        {
          "name": "r",
          "type": "bytes32"
        },
        {
          "name": "s",
          "type": "bytes32"
        }
      ],
      "name": "verify",
      "outputs": [
        {
          "name": "",
          "type": "bool"
        }
      ],
      "payable": false,
      "stateMutability": "pure",
      "type": "function",
      "signature": "0x506535f3"
    },
    {
      "constant": true,
      "inputs": [],
      "name": "escrowownaddress",
      "outputs": [
        {
          "name": "",
          "type": "address"
        }
      ],
      "payable": false,
      "stateMutability": "view",
      "type": "function",
      "signature": "0x50660346"
    },
    {
      "constant": true,
      "inputs": [],
      "name": "thereceivertopay",
      "outputs": [
        {
          "name": "",
          "type": "address"
        }
      ],
      "payable": false,
      "stateMutability": "view",
      "type": "function",
      "signature": "0x9044aa7a"
    },
    {
      "constant": true,
      "inputs": [
        {
          "name": "",
          "type": "uint256"
        }
      ],
      "name": "punishings",
      "outputs": [
        {
          "name": "escrowvictimaddress",
          "type": "address"
        },
        {
          "name": "escrowvictimmame",
          "type": "bytes32"
        },
        {
          "name": "escrowvictimmoney",
          "type": "uint256"
        },
        {
          "name": "escrowvictimtimestamp",
          "type": "bytes32"
        },
        {
          "name": "escrowvictimcount",
          "type": "uint256"
        }
      ],
      "payable": false,
      "stateMutability": "view",
      "type": "function",
      "signature": "0xa44dacdd"
    },
    {
      "constant": false,
      "inputs": [
        {
          "name": "sig",
          "type": "bytes"
        }
      ],
      "name": "splitSignature",
      "outputs": [
        {
          "name": "v",
          "type": "uint8"
        },
        {
          "name": "r",
          "type": "bytes32"
        },
        {
          "name": "s",
          "type": "bytes32"
        }
      ],
      "payable": true,
      "stateMutability": "payable",
      "type": "function",
      "signature": "0xa7bb5803"
    },
    {
      "constant": true,
      "inputs": [],
      "name": "amountrequired",
      "outputs": [
        {
          "name": "",
          "type": "uint256"
        }
      ],
      "payable": false,
      "stateMutability": "view",
      "type": "function",
      "signature": "0xbe8a7719"
    },
    {
      "constant": false,
      "inputs": [
        {
          "name": "entitymustgethismoneyback",
          "type": "address"
        }
      ],
      "name": "kill",
      "outputs": [],
      "payable": true,
      "stateMutability": "payable",
      "type": "function",
      "signature": "0xcbf0b0c0"
    },
    {
      "constant": true,
      "inputs": [],
      "name": "thereceivertopaybalance",
      "outputs": [
        {
          "name": "",
          "type": "uint256"
        }
      ],
      "payable": false,
      "stateMutability": "view",
      "type": "function",
      "signature": "0xd2c5e34c"
    },
    {
      "anonymous": false,
      "inputs": [
        {
          "indexed": false,
          "name": "wehaveescrowownaddress",
          "type": "address"
        },
        {
          "indexed": false,
          "name": "wehaveescrowparticipator",
          "type": "address"
        },
        {
          "indexed": false,
          "name": "wehaveescrowparticipatoramount",
          "type": "uint256"
        }
      ],
      "name": "pleasesendmyescrow",
      "type": "event",
      "signature": "0x40ec2f3ec98d49af1ad53e142b599d19b76ce8f5bb674ae8ec4d4876bcb1680b"
    },
    {
      "anonymous": false,
      "inputs": [
        {
          "indexed": false,
          "name": "donatorhere",
          "type": "address"
        },
        {
          "indexed": false,
          "name": "receipienthere",
          "type": "address"
        },
        {
          "indexed": false,
          "name": "amounthere",
          "type": "uint256"
        }
      ],
      "name": "logdeposits",
      "type": "event",
      "signature": "0x2d5850082aa06d4d84f7fd35d30c5007fbb5da417488a915ef296da60b59f034"
    },
    {
      "anonymous": false,
      "inputs": [
        {
          "indexed": false,
          "name": "from",
          "type": "address"
        },
        {
          "indexed": false,
          "name": "receipientaddress",
          "type": "address"
        },
        {
          "indexed": false,
          "name": "amount",
          "type": "uint256"
        }
      ],
      "name": "Sent",
      "type": "event",
      "signature": "0x3990db2d31862302a685e8086b5755072a6e2b5b780af1ee81ece35ee3cd3345"
    },
    {
      "constant": false,
      "inputs": [
        {
          "name": "_consumeraddress",
          "type": "address"
        }
      ],
      "name": "getConsumerdetails",
      "outputs": [
        {
          "name": "consumeraddressretrieved",
          "type": "address"
        },
        {
          "name": "customerretrievedname",
          "type": "bytes32"
        },
        {
          "name": "customerretrievedage",
          "type": "uint256"
        }
      ],
      "payable": false,
      "stateMutability": "nonpayable",
      "type": "function",
      "signature": "0xaf68ea13"
    },
    {
      "constant": false,
      "inputs": [
        {
          "name": "_consumeraddresses",
          "type": "address"
        },
        {
          "name": "_customernamess",
          "type": "bytes32"
        },
        {
          "name": "_customeragess",
          "type": "uint256"
        },
        {
          "name": "priceshere",
          "type": "uint256"
        },
        {
          "name": "RRFIDS",
          "type": "bytes32"
        }
      ],
      "name": "storeconsumerstuff",
      "outputs": [],
      "payable": false,
      "stateMutability": "nonpayable",
      "type": "function",
      "signature": "0x967e8481"
    },
    {
      "constant": false,
      "inputs": [
        {
          "name": "_consumeraddr",
          "type": "address"
        },
        {
          "name": "_customernam",
          "type": "bytes32"
        },
        {
          "name": "drugsRFID",
          "type": "bytes32"
        },
        {
          "name": "pricing",
          "type": "uint256"
        }
      ],
      "name": "drugbought",
      "outputs": [
        {
          "name": "suchacustomer",
          "type": "address"
        },
        {
          "name": "customername",
          "type": "bytes32"
        },
        {
          "name": "thedrugandRFID",
          "type": "bytes32"
        },
        {
          "name": "priceofdrug",
          "type": "uint256"
        }
      ],
      "payable": false,
      "stateMutability": "nonpayable",
      "type": "function",
      "signature": "0x3c3ea996"
    },
    {
      "constant": false,
      "inputs": [
        {
          "name": "escrowparticipator",
          "type": "address"
        },
        {
          "name": "escrowparticipatorname",
          "type": "bytes32"
        },
        {
          "name": "escrowparticipatoramount",
          "type": "uint256"
        }
      ],
      "name": "sendescrow",
      "outputs": [],
      "payable": true,
      "stateMutability": "payable",
      "type": "function",
      "signature": "0x81f7edc9"
    },
    {
      "constant": false,
      "inputs": [
        {
          "name": "_escrowvictimaddress",
          "type": "address"
        },
        {
          "name": "_escrowvictimmame",
          "type": "bytes32"
        },
        {
          "name": "_escrowvictimmoney",
          "type": "uint256"
        }
      ],
      "name": "returnbackescrow",
      "outputs": [],
      "payable": true,
      "stateMutability": "payable",
      "type": "function",
      "signature": "0xd7b8be0b"
    },
    {
      "constant": false,
      "inputs": [
        {
          "name": "donator",
          "type": "address"
        },
        {
          "name": "receipient",
          "type": "address"
        },
        {
          "name": "amount",
          "type": "uint256"
        }
      ],
      "name": "deposit",
      "outputs": [],
      "payable": true,
      "stateMutability": "payable",
      "type": "function",
      "signature": "0x8340f549"
    },
    {
      "constant": false,
      "inputs": [
        {
          "name": "balanceamount",
          "type": "uint256"
        },
        {
          "name": "escrowbalancenow",
          "type": "uint256"
        }
      ],
      "name": "withdraw",
      "outputs": [],
      "payable": true,
      "stateMutability": "payable",
      "type": "function",
      "signature": "0x441a3e70"
    },
    {
      "constant": true,
      "inputs": [],
      "name": "balances",
      "outputs": [
        {
          "name": "",
          "type": "uint256"
        }
      ],
      "payable": false,
      "stateMutability": "view",
      "type": "function",
      "signature": "0x7bb98a68"
    },
    {
      "constant": false,
      "inputs": [
        {
          "name": "yourcurrentowner",
          "type": "address"
        },
        {
          "name": "amount",
          "type": "uint256"
        },
        {
          "name": "nonce",
          "type": "uint256"
        },
        {
          "name": "signature",
          "type": "bytes"
        },
        {
          "name": "receipientaddress",
          "type": "address"
        },
        {
          "name": "hashes",
          "type": "bytes32"
        }
      ],
      "name": "claimPayment",
      "outputs": [],
      "payable": true,
      "stateMutability": "payable",
      "type": "function",
      "signature": "0x930c8ee0"
    }
  ],
  "bytecode": "0x6080604052600260005573fd2c3e27bfaccf842424e48dc72cb18ba48e9457600160006101000a81548173ffffffffffffffffffffffffffffffffffffffff021916908373ffffffffffffffffffffffffffffffffffffffff160217905550600260009054906101000a900473ffffffffffffffffffffffffffffffffffffffff1673ffffffffffffffffffffffffffffffffffffffff1631600355600160009054906101000a900473ffffffffffffffffffffffffffffffffffffffff1673ffffffffffffffffffffffffffffffffffffffff16316004553480156100e457600080fd5b5061311e806100f46000396000f3fe60806040526004361061011d576000357c0100000000000000000000000000000000000000000000000000000000900463ffffffff168063013cf08b14610122578063135aa1a4146101b95780631dec8f5e146102b657806328ce3f01146102e15780633c3ea9961461037f578063441a3e7014610443578063506535f31461047b578063506603461461050f5780637bb98a681461056657806381f7edc9146105915780638340f549146105e95780639044aa7a14610657578063930c8ee0146106ae578063967e8481146107c7578063a44dacdd14610840578063a7bb5803146108d7578063af68ea13146109ba578063be8a771914610a59578063cbf0b0c014610a84578063d2c5e34c14610ac8578063d7b8be0b14610af3575b600080fd5b34801561012e57600080fd5b5061015b6004803603602081101561014557600080fd5b8101908080359060200190929190505050610b4b565b604051808673ffffffffffffffffffffffffffffffffffffffff1673ffffffffffffffffffffffffffffffffffffffff1681526020018581526020018481526020018381526020018281526020019550505050505060405180910390f35b61029c600480360360608110156101cf57600080fd5b8101908080359060200190929190803590602001906401000000008111156101f657600080fd5b82018360208201111561020857600080fd5b8035906020019184600183028401116401000000008311171561022a57600080fd5b91908080601f016020809104026020016040519081016040528093929190818152602001838380828437600081840152601f19601f820116905080830192505050505050509192919290803573ffffffffffffffffffffffffffffffffffffffff169060200190929190505050610bb0565b604051808215151515815260200191505060405180910390f35b3480156102c257600080fd5b506102cb610c3b565b6040518082815260200191505060405180910390f35b3480156102ed57600080fd5b5061031a6004803603602081101561030457600080fd5b8101908080359060200190929190505050610c41565b604051808781526020018681526020018581526020018481526020018373ffffffffffffffffffffffffffffffffffffffff1673ffffffffffffffffffffffffffffffffffffffff168152602001828152602001965050505050505060405180910390f35b34801561038b57600080fd5b506103ec600480360360808110156103a257600080fd5b81019080803573ffffffffffffffffffffffffffffffffffffffff169060200190929190803590602001909291908035906020019092919080359060200190929190505050610cac565b604051808573ffffffffffffffffffffffffffffffffffffffff1673ffffffffffffffffffffffffffffffffffffffff16815260200184815260200183815260200182815260200194505050505060405180910390f35b6104796004803603604081101561045957600080fd5b8101908080359060200190929190803590602001909291905050506110ff565b005b34801561048757600080fd5b506104f5600480360360a081101561049e57600080fd5b81019080803573ffffffffffffffffffffffffffffffffffffffff16906020019092919080359060200190929190803560ff169060200190929190803590602001909291908035906020019092919050505061110d565b604051808215151515815260200191505060405180910390f35b34801561051b57600080fd5b506105246111e2565b604051808273ffffffffffffffffffffffffffffffffffffffff1673ffffffffffffffffffffffffffffffffffffffff16815260200191505060405180910390f35b34801561057257600080fd5b5061057b611208565b6040518082815260200191505060405180910390f35b6105e7600480360360608110156105a757600080fd5b81019080803573ffffffffffffffffffffffffffffffffffffffff1690602001909291908035906020019092919080359060200190929190505050611216565b005b610655600480360360608110156105ff57600080fd5b81019080803573ffffffffffffffffffffffffffffffffffffffff169060200190929190803573ffffffffffffffffffffffffffffffffffffffff16906020019092919080359060200190929190505050611226565b005b34801561066357600080fd5b5061066c611236565b604051808273ffffffffffffffffffffffffffffffffffffffff1673ffffffffffffffffffffffffffffffffffffffff16815260200191505060405180910390f35b6107c5600480360360c08110156106c457600080fd5b81019080803573ffffffffffffffffffffffffffffffffffffffff16906020019092919080359060200190929190803590602001909291908035906020019064010000000081111561071557600080fd5b82018360208201111561072757600080fd5b8035906020019184600183028401116401000000008311171561074957600080fd5b91908080601f016020809104026020016040519081016040528093929190818152602001838380828437600081840152601f19601f820116905080830192505050505050509192919290803573ffffffffffffffffffffffffffffffffffffffff1690602001909291908035906020019092919050505061125c565b005b3480156107d357600080fd5b5061083e600480360360a08110156107ea57600080fd5b81019080803573ffffffffffffffffffffffffffffffffffffffff16906020019092919080359060200190929190803590602001909291908035906020019092919080359060200190929190505050611272565b005b34801561084c57600080fd5b506108796004803603602081101561086357600080fd5b8101908080359060200190929190505050611675565b604051808673ffffffffffffffffffffffffffffffffffffffff1673ffffffffffffffffffffffffffffffffffffffff1681526020018581526020018481526020018381526020018281526020019550505050505060405180910390f35b610990600480360360208110156108ed57600080fd5b810190808035906020019064010000000081111561090a57600080fd5b82018360208201111561091c57600080fd5b8035906020019184600183028401116401000000008311171561093e57600080fd5b91908080601f016020809104026020016040519081016040528093929190818152602001838380828437600081840152601f19601f8201169050808301925050505050505091929192905050506116da565b604051808460ff1660ff168152602001838152602001828152602001935050505060405180910390f35b3480156109c657600080fd5b50610a09600480360360208110156109dd57600080fd5b81019080803573ffffffffffffffffffffffffffffffffffffffff169060200190929190505050611751565b604051808473ffffffffffffffffffffffffffffffffffffffff1673ffffffffffffffffffffffffffffffffffffffff168152602001838152602001828152602001935050505060405180910390f35b348015610a6557600080fd5b50610a6e611a21565b6040518082815260200191505060405180910390f35b610ac660048036036020811015610a9a57600080fd5b81019080803573ffffffffffffffffffffffffffffffffffffffff169060200190929190505050611a27565b005b348015610ad457600080fd5b50610add611a7a565b6040518082815260200191505060405180910390f35b610b4960048036036060811015610b0957600080fd5b81019080803573ffffffffffffffffffffffffffffffffffffffff1690602001909291908035906020019092919080359060200190929190505050611a80565b005b600981815481101515610b5a57fe5b90600052602060002090600602016000915090508060000160009054906101000a900473ffffffffffffffffffffffffffffffffffffffff16908060010154908060020154908060030154908060040154905085565b600080600080610bbf866116da565b92509250925060018784848460405160008152602001604052604051808581526020018460ff1660ff1681526020018381526020018281526020019450505050506020604051602081039080840390855afa158015610c22573d6000803e3d6000fd5b5050506020604051035150600193505050509392505050565b60045481565b601781815481101515610c5057fe5b90600052602060002090600802016000915090508060000154908060010154908060020154908060030154908060040160009054906101000a900473ffffffffffffffffffffffffffffffffffffffff16908060050154905086565b6000806000806000601681905550600060186003018190555060186003016000815480929190600101919050555060009450601860040160009054906101000a9050506000601860020181905550601860070160008781526020019081526020016000206016546103e881101515610d2057fe5b6008020160040160009054906101000a905050601860070160008781526020019081526020016000206016546103e881101515610d5957fe5b50506000601860070160008881526020019081526020016000206016546103e881101515610d8357fe5b6008020160020181905550601860070160008781526020019081526020016000206016546103e881101515610db457fe5b505087601860060160008a73ffffffffffffffffffffffffffffffffffffffff1673ffffffffffffffffffffffffffffffffffffffff1681526020019081526020016000206016546103e881101515610e0957fe5b6008020160040160006101000a81548173ffffffffffffffffffffffffffffffffffffffff021916908373ffffffffffffffffffffffffffffffffffffffff1602179055508773ffffffffffffffffffffffffffffffffffffffff16601860060160008a73ffffffffffffffffffffffffffffffffffffffff1673ffffffffffffffffffffffffffffffffffffffff1681526020019081526020016000206016546103e881101515610eb757fe5b6008020160040160009054906101000a900473ffffffffffffffffffffffffffffffffffffffff1673ffffffffffffffffffffffffffffffffffffffff161480610f2d575085601860070160008881526020019081526020016000206016546103e881101515610f2357fe5b6008020160050154145b1515610f3857600080fd5b87601860070160008881526020019081526020016000206016546103e881101515610f5f57fe5b6008020160040160006101000a81548173ffffffffffffffffffffffffffffffffffffffff021916908373ffffffffffffffffffffffffffffffffffffffff16021790555086601860070160008881526020019081526020016000206016546103e881101515610fcb57fe5b600802016000018190555084601860070160008881526020019081526020016000206016546103e881101515610ffd57fe5b6008020160020181905550601860070160008781526020019081526020016000206016546103e88110151561102e57fe5b6008020160040160009054906101000a900473ffffffffffffffffffffffffffffffffffffffff169350601860070160008781526020019081526020016000206016546103e88110151561107e57fe5b60080201600001549250601860070160008781526020019081526020016000206016546103e8811015156110ae57fe5b60080201600501549150601860070160008781526020019081526020016000206016546103e8811015156110de57fe5b60080201600201549450838383879350935093509350945094509450949050565b6111098282611a90565b5050565b60008061113f866040516020018082815260200191505060405160208183030381529060405280519060200120611b2d565b90508673ffffffffffffffffffffffffffffffffffffffff1660018287878760405160008152602001604052604051808581526020018460ff1660ff1681526020018381526020018281526020019450505050506020604051602081039080840390855afa1580156111b5573d6000803e3d6000fd5b5050506020604051035173ffffffffffffffffffffffffffffffffffffffff161491505095945050505050565b600160009054906101000a900473ffffffffffffffffffffffffffffffffffffffff1681565b6000611212611b85565b5090565b611221838383611b8f565b505050565b611231838383612340565b505050565b600260009054906101000a900473ffffffffffffffffffffffffffffffffffffffff1681565b61126a86868686868661247c565b505050505050565b6000601860030181905550601860030160008154809291906001019190505550601860040160009054906101000a905050600060186001018190555060006018600201819055506000601860070160008381526020019081526020016000206016546103e8811015156112e157fe5b60080201600101819055506000601860070160008381526020019081526020016000206016546103e88110151561131457fe5b600802016002018190555084601860070160008381526020019081526020016000206016546103e88110151561134657fe5b6008020160040160006101000a81548173ffffffffffffffffffffffffffffffffffffffff021916908373ffffffffffffffffffffffffffffffffffffffff16021790555083601860070160008381526020019081526020016000206016546103e8811015156113b257fe5b600802016000018190555082601860070160008381526020019081526020016000206016546103e8811015156113e457fe5b600802016001018190555081601860070160008381526020019081526020016000206016546103e88110151561141657fe5b600802016002018190555080601860070160008381526020019081526020016000206016546103e88110151561144857fe5b6008020160050181905550601760c060405190810160405280601860070160008581526020019081526020016000206016546103e88110151561148757fe5b60080201600001548152602001601860070160008581526020019081526020016000206016546103e8811015156114ba57fe5b60080201600101548152602001601860070160008581526020019081526020016000206016546103e8811015156114ed57fe5b60080201600201548152602001601860070160008581526020019081526020016000206016546103e88110151561152057fe5b60080201600301548152602001601860070160008581526020019081526020016000206016546103e88110151561155357fe5b6008020160040160009054906101000a900473ffffffffffffffffffffffffffffffffffffffff1673ffffffffffffffffffffffffffffffffffffffff168152602001601860070160008581526020019081526020016000206016546103e8811015156115bc57fe5b6008020160050154815250908060018154018082558091505090600182039060005260206000209060080201600090919290919091506000820151816000015560208201518160010155604082015181600201556060820151816003015560808201518160040160006101000a81548173ffffffffffffffffffffffffffffffffffffffff021916908373ffffffffffffffffffffffffffffffffffffffff16021790555060a082015181600501555050505050505050565b60088181548110151561168457fe5b90600052602060002090600602016000915090508060000160009054906101000a900473ffffffffffffffffffffffffffffffffffffffff16908060010154908060020154908060030154908060040154905085565b6000806000604184511415156116ef57600080fd5b604051602081015192506040810151915060ff604182015116935050601b8360ff16101561171e57601b830192505b601b8360ff16141580156117365750601c8360ff1614155b156117495782828292509250925061174a565b5b9193909250565b6000806000806016819055506000601860030181905550601860030154601681905550600080905060009150819050601860040160009054906101000a90505084601860060160008773ffffffffffffffffffffffffffffffffffffffff1673ffffffffffffffffffffffffffffffffffffffff1681526020019081526020016000206016546103e8811015156117e457fe5b6008020160040160006101000a81548173ffffffffffffffffffffffffffffffffffffffff021916908373ffffffffffffffffffffffffffffffffffffffff1602179055508473ffffffffffffffffffffffffffffffffffffffff16601860060160008773ffffffffffffffffffffffffffffffffffffffff1673ffffffffffffffffffffffffffffffffffffffff1681526020019081526020016000206016546103e88110151561189257fe5b6008020160040160009054906101000a900473ffffffffffffffffffffffffffffffffffffffff1673ffffffffffffffffffffffffffffffffffffffff161415156118dc57600080fd5b601860060160008673ffffffffffffffffffffffffffffffffffffffff1673ffffffffffffffffffffffffffffffffffffffff1681526020019081526020016000206016546103e88110151561192e57fe5b6008020160040160009054906101000a900473ffffffffffffffffffffffffffffffffffffffff169350601860060160008673ffffffffffffffffffffffffffffffffffffffff1673ffffffffffffffffffffffffffffffffffffffff1681526020019081526020016000206016546103e8811015156119aa57fe5b60080201600001549250601860060160008673ffffffffffffffffffffffffffffffffffffffff1673ffffffffffffffffffffffffffffffffffffffff1681526020019081526020016000206016546103e881101515611a0657fe5b60080201600101549150838383935093509350509193909250565b60005481565b8073ffffffffffffffffffffffffffffffffffffffff163373ffffffffffffffffffffffffffffffffffffffff16141515611a6157600080fd5b3373ffffffffffffffffffffffffffffffffffffffff16ff5b60035481565b611a8b838383612655565b505050565b6000915060009050806004819055506004548211151515611b19576040517f08c379a00000000000000000000000000000000000000000000000000000000081526004018080602001828103825260158152602001807f496e73756666696369656e742062616c616e63652e000000000000000000000081525060200191505060405180910390fd5b816004600082825403925050819055505050565b60008160405160200180807f19457468657265756d205369676e6564204d6573736167653a0a333200000000815250601c01828152602001915050604051602081830303815290604052805190602001209050919050565b6000600454905090565b60008090506000600a6004018190555060008090506000600a60020181905550600a600401549150819050600a60000160009054906101000a90505084600a60050160008773ffffffffffffffffffffffffffffffffffffffff1673ffffffffffffffffffffffffffffffffffffffff168152602001908152602001600020826103e881101515611c1c57fe5b6006020160000160006101000a81548173ffffffffffffffffffffffffffffffffffffffff021916908373ffffffffffffffffffffffffffffffffffffffff16021790555083600a60050160008773ffffffffffffffffffffffffffffffffffffffff1673ffffffffffffffffffffffffffffffffffffffff168152602001908152602001600020826103e881101515611cb257fe5b60060201600101819055506000600a60050160008773ffffffffffffffffffffffffffffffffffffffff1673ffffffffffffffffffffffffffffffffffffffff168152602001908152602001600020826103e881101515611d0f57fe5b600602016002018190555082600a60050160008773ffffffffffffffffffffffffffffffffffffffff1673ffffffffffffffffffffffffffffffffffffffff168152602001908152602001600020826103e881101515611d6b57fe5b60060201600201819055507f40ec2f3ec98d49af1ad53e142b599d19b76ce8f5bb674ae8ec4d4876bcb1680b600160009054906101000a900473ffffffffffffffffffffffffffffffffffffffff16600a60050160008873ffffffffffffffffffffffffffffffffffffffff1673ffffffffffffffffffffffffffffffffffffffff168152602001908152602001600020836103e881101515611e0a57fe5b6006020160000160009054906101000a900473ffffffffffffffffffffffffffffffffffffffff16600a60050160008973ffffffffffffffffffffffffffffffffffffffff1673ffffffffffffffffffffffffffffffffffffffff168152602001908152602001600020846103e881101515611e8257fe5b6006020160020154604051808473ffffffffffffffffffffffffffffffffffffffff1673ffffffffffffffffffffffffffffffffffffffff1681526020018373ffffffffffffffffffffffffffffffffffffffff1673ffffffffffffffffffffffffffffffffffffffff168152602001828152602001935050505060405180910390a1600a60050160008673ffffffffffffffffffffffffffffffffffffffff1673ffffffffffffffffffffffffffffffffffffffff168152602001908152602001600020816103e881101515611f5557fe5b6006020160000160009054906101000a900473ffffffffffffffffffffffffffffffffffffffff1673ffffffffffffffffffffffffffffffffffffffff166108fc600a60050160008873ffffffffffffffffffffffffffffffffffffffff1673ffffffffffffffffffffffffffffffffffffffff168152602001908152602001600020836103e881101515611fe657fe5b60060201600201549081150290604051600060405180830381858888f19350505050158015612019573d6000803e3d6000fd5b50600a60050160008673ffffffffffffffffffffffffffffffffffffffff1673ffffffffffffffffffffffffffffffffffffffff168152602001908152602001600020816103e88110151561206a57fe5b6006020160020154600460008282540192505081905550600960a060405190810160405280600a60050160008973ffffffffffffffffffffffffffffffffffffffff1673ffffffffffffffffffffffffffffffffffffffff168152602001908152602001600020846103e8811015156120df57fe5b6006020160000160009054906101000a900473ffffffffffffffffffffffffffffffffffffffff1673ffffffffffffffffffffffffffffffffffffffff168152602001600a60050160008973ffffffffffffffffffffffffffffffffffffffff1673ffffffffffffffffffffffffffffffffffffffff168152602001908152602001600020846103e88110151561217257fe5b60060201600101548152602001600a60050160008973ffffffffffffffffffffffffffffffffffffffff1673ffffffffffffffffffffffffffffffffffffffff168152602001908152602001600020846103e8811015156121cf57fe5b60060201600201548152602001600a60050160008973ffffffffffffffffffffffffffffffffffffffff1673ffffffffffffffffffffffffffffffffffffffff168152602001908152602001600020846103e88110151561222c57fe5b60060201600301548152602001600a60050160008973ffffffffffffffffffffffffffffffffffffffff1673ffffffffffffffffffffffffffffffffffffffff168152602001908152602001600020846103e88110151561228957fe5b60060201600401548152509080600181540180825580915050906001820390600052602060002090600602016000909192909190915060008201518160000160006101000a81548173ffffffffffffffffffffffffffffffffffffffff021916908373ffffffffffffffffffffffffffffffffffffffff1602179055506020820151816001015560408201518160020155606082015181600301556080820151816004015550505080806001019150505050505050565b8273ffffffffffffffffffffffffffffffffffffffff166108fc829081150290604051600060405180830381858888f19350505050158015612386573d6000803e3d6000fd5b508060046000828254019250508190555081600160006101000a81548173ffffffffffffffffffffffffffffffffffffffff021916908373ffffffffffffffffffffffffffffffffffffffff1602179055507f2d5850082aa06d4d84f7fd35d30c5007fbb5da417488a915ef296da60b59f034838383604051808473ffffffffffffffffffffffffffffffffffffffff1673ffffffffffffffffffffffffffffffffffffffff1681526020018373ffffffffffffffffffffffffffffffffffffffff1673ffffffffffffffffffffffffffffffffffffffff168152602001828152602001935050505060405180910390a1505050565b60008090508590506000809050600080905086905088600260006101000a81548173ffffffffffffffffffffffffffffffffffffffff021916908373ffffffffffffffffffffffffffffffffffffffff1602179055506007600082815260200190815260200160002060009054906101000a900460ff161515156124ff57600080fd5b60016007600089815260200190815260200160002060006101000a81548160ff0219169083151502179055506001151561253a85888c610bb0565b151514151561254857600080fd5b8473ffffffffffffffffffffffffffffffffffffffff166108fc899081150290604051600060405180830381858888f1935050505015801561258e573d6000803e3d6000fd5b50878573ffffffffffffffffffffffffffffffffffffffff16310391507f3990db2d31862302a685e8086b5755072a6e2b5b780af1ee81ece35ee3cd334589868a604051808473ffffffffffffffffffffffffffffffffffffffff1673ffffffffffffffffffffffffffffffffffffffff1681526020018373ffffffffffffffffffffffffffffffffffffffff1673ffffffffffffffffffffffffffffffffffffffff168152602001828152602001935050505060405180910390a1505050505050505050565b6000809050600080905060008090506000601060040181905550600a60000160009054906101000a9050506000601060050160008873ffffffffffffffffffffffffffffffffffffffff1673ffffffffffffffffffffffffffffffffffffffff168152602001908152602001600020836103e8811015156126d257fe5b600602016002018190555083601060050160008873ffffffffffffffffffffffffffffffffffffffff1673ffffffffffffffffffffffffffffffffffffffff168152602001908152602001600020836103e88110151561272e57fe5b600602016002018190555084601060050160008873ffffffffffffffffffffffffffffffffffffffff1673ffffffffffffffffffffffffffffffffffffffff168152602001908152602001600020836103e88110151561278a57fe5b600602016001018190555085601060050160008873ffffffffffffffffffffffffffffffffffffffff1673ffffffffffffffffffffffffffffffffffffffff168152602001908152602001600020836103e8811015156127e657fe5b6006020160000160006101000a81548173ffffffffffffffffffffffffffffffffffffffff021916908373ffffffffffffffffffffffffffffffffffffffff1602179055508573ffffffffffffffffffffffffffffffffffffffff16600a6005016000600a60000160009054906101000a900473ffffffffffffffffffffffffffffffffffffffff1673ffffffffffffffffffffffffffffffffffffffff1673ffffffffffffffffffffffffffffffffffffffff168152602001908152602001600020846103e8811015156128b757fe5b6006020160000160009054906101000a900473ffffffffffffffffffffffffffffffffffffffff1673ffffffffffffffffffffffffffffffffffffffff1614151561290157600080fd5b60106004015460068190555060066000815480929190600101919050559150601060000160009054906101000a90505085601060050160008873ffffffffffffffffffffffffffffffffffffffff1673ffffffffffffffffffffffffffffffffffffffff168152602001908152602001600020836103e88110151561298257fe5b6006020160000160006101000a81548173ffffffffffffffffffffffffffffffffffffffff021916908373ffffffffffffffffffffffffffffffffffffffff160217905550600a6005016000600a60000160009054906101000a900473ffffffffffffffffffffffffffffffffffffffff1673ffffffffffffffffffffffffffffffffffffffff1673ffffffffffffffffffffffffffffffffffffffff168152602001908152602001600020836103e881101515612a3c57fe5b6006020160020154601060050160008873ffffffffffffffffffffffffffffffffffffffff1673ffffffffffffffffffffffffffffffffffffffff168152602001908152602001600020836103e881101515612a9457fe5b6006020160020181905550600a6005016000600a60000160009054906101000a900473ffffffffffffffffffffffffffffffffffffffff1673ffffffffffffffffffffffffffffffffffffffff1673ffffffffffffffffffffffffffffffffffffffff168152602001908152602001600020836103e881101515612b1457fe5b6006020160000160009054906101000a900473ffffffffffffffffffffffffffffffffffffffff16601060050160008873ffffffffffffffffffffffffffffffffffffffff1673ffffffffffffffffffffffffffffffffffffffff168152602001908152602001600020836103e881101515612b8c57fe5b6006020160000160006101000a81548173ffffffffffffffffffffffffffffffffffffffff021916908373ffffffffffffffffffffffffffffffffffffffff160217905550601060050160008773ffffffffffffffffffffffffffffffffffffffff1673ffffffffffffffffffffffffffffffffffffffff168152602001908152602001600020826103e881101515612c2157fe5b600602016002015490506000601060050160008873ffffffffffffffffffffffffffffffffffffffff1673ffffffffffffffffffffffffffffffffffffffff168152602001908152602001600020836103e881101515612c7d57fe5b6006020160000160009054906101000a900473ffffffffffffffffffffffffffffffffffffffff169050600160009054906101000a900473ffffffffffffffffffffffffffffffffffffffff1673ffffffffffffffffffffffffffffffffffffffff163373ffffffffffffffffffffffffffffffffffffffff16141515612d0357600080fd5b600160009054906101000a900473ffffffffffffffffffffffffffffffffffffffff1673ffffffffffffffffffffffffffffffffffffffff166108fc839081150290604051600060405180830381858888f19350505050158015612d6b573d6000803e3d6000fd5b50612d78826004546110ff565b7f3990db2d31862302a685e8086b5755072a6e2b5b780af1ee81ece35ee3cd3345600160009054906101000a900473ffffffffffffffffffffffffffffffffffffffff168284604051808473ffffffffffffffffffffffffffffffffffffffff1673ffffffffffffffffffffffffffffffffffffffff1681526020018373ffffffffffffffffffffffffffffffffffffffff1673ffffffffffffffffffffffffffffffffffffffff168152602001828152602001935050505060405180910390a1600860a060405190810160405280601060050160008b73ffffffffffffffffffffffffffffffffffffffff1673ffffffffffffffffffffffffffffffffffffffff168152602001908152602001600020866103e881101515612e9757fe5b6006020160000160009054906101000a900473ffffffffffffffffffffffffffffffffffffffff1673ffffffffffffffffffffffffffffffffffffffff168152602001601060050160008b73ffffffffffffffffffffffffffffffffffffffff1673ffffffffffffffffffffffffffffffffffffffff168152602001908152602001600020866103e881101515612f2a57fe5b60060201600101548152602001601060050160008b73ffffffffffffffffffffffffffffffffffffffff1673ffffffffffffffffffffffffffffffffffffffff168152602001908152602001600020866103e881101515612f8757fe5b60060201600201548152602001601060050160008b73ffffffffffffffffffffffffffffffffffffffff1673ffffffffffffffffffffffffffffffffffffffff168152602001908152602001600020866103e881101515612fe457fe5b60060201600301548152602001601060050160008b73ffffffffffffffffffffffffffffffffffffffff1673ffffffffffffffffffffffffffffffffffffffff168152602001908152602001600020866103e88110151561304157fe5b60060201600401548152509080600181540180825580915050906001820390600052602060002090600602016000909192909190915060008201518160000160006101000a81548173ffffffffffffffffffffffffffffffffffffffff021916908373ffffffffffffffffffffffffffffffffffffffff160217905550602082015181600101556040820151816002015560608201518160030155608082015181600401555050505050505050505056fea165627a7a72305820010a63a990a3e428557bec5dc50352f7f72fd0428cf905bb42d42bd133cea41d0029",
  "source": "pragma solidity >=0.4.0 <0.6.0;\r\n \r\n\r\n import \"./EscrowComplianceCecker.sol\";\r\n import  \"./Industry.sol\";\r\n contract Consumer is EscrowComplianceCecker  {\r\n          uint  i; \r\n      \r\n       struct Buyer {\r\n       bytes32  customername;\r\n        uint  customerage;\r\n       uint price;\r\n       uint thecustomerscount;\r\n       address payable consumeraddress;\r\n       bytes32 RFIDS;\r\n    \r\n      mapping (address => Buyer[1000]) buyers;\r\n      mapping (bytes32 => Buyer[1000]) somebuyer;\r\n\r\n       }\r\n       \r\n        Buyer[] public consumerstore; \r\n        Buyer consumer;\r\n       \r\n       \r\n   \r\n     function getConsumerdetails(address payable _consumeraddress) public returns(address payable consumeraddressretrieved, bytes32 customerretrievedname, uint customerretrievedage)   {\r\n         i=0;\r\n       consumer.thecustomerscount=0;\r\n       i= consumer.thecustomerscount;\r\n        uint customeragetoberetrieved = 0;\r\n         customerretrievedage=0;\r\n        customeragetoberetrieved=customerretrievedage;\r\n         consumer.consumeraddress;\r\n        \r\n            \r\n           consumer.buyers[_consumeraddress][i].consumeraddress =  _consumeraddress;\r\n             \r\n                   require( consumer.buyers[_consumeraddress][i].consumeraddress  ==  _consumeraddress);\r\n             consumeraddressretrieved  = consumer.buyers[_consumeraddress][i].consumeraddress;\r\n             customerretrievedname =  consumer.buyers[_consumeraddress][i].customername;\r\n             customerretrievedage = consumer.buyers[_consumeraddress][i].customerage;\r\n\r\n             \r\n         return (  consumeraddressretrieved, customerretrievedname,\r\n                 customerretrievedage\r\n           );\r\n         \r\n         \r\n     }\r\n        \r\n       function storeconsumerstuff(address payable _consumeraddresses, bytes32 _customernamess, uint _customeragess, uint priceshere, bytes32 RRFIDS  ) public {\r\n         \r\n           i-0;\r\n           consumer.thecustomerscount=0;\r\n          consumer.thecustomerscount++;\r\n         \r\n         consumer.consumeraddress;\r\n          //_consumeraddresses;\r\n         consumer.customername;\r\n         // = _customernamess;\r\n          consumer.customerage=0;\r\n         // =  _customeragess;\r\n          consumer.price=0;\r\n        // priceshere;\r\n         consumer.RFIDS;  \r\n         \r\n                 consumer.somebuyer[RRFIDS][i].customerage =0;\r\n                  consumer.somebuyer[ RRFIDS][i].price=0;  \r\n          consumer.somebuyer[RRFIDS][i].consumeraddress = _consumeraddresses;\r\n              consumer.somebuyer[ RRFIDS][i].customername = _customernamess;\r\n                  consumer.somebuyer[ RRFIDS][i].customerage =_customeragess;\r\n                consumer.somebuyer[ RRFIDS][i].price =priceshere;\r\n                  consumer.somebuyer[ RRFIDS][i].RFIDS= RRFIDS;\r\n           \r\n     \r\n     \r\n     \r\n     \r\n     consumerstore.push(Buyer(\r\n     {\r\n      customername:  consumer.somebuyer[ RRFIDS][i].customername,\r\n      customerage: consumer.somebuyer[ RRFIDS][i].customerage,\r\n      price:  consumer.somebuyer[RRFIDS][i].price,\r\n      thecustomerscount: consumer.somebuyer[RRFIDS][i].thecustomerscount,\r\n        consumeraddress:  consumer.somebuyer[RRFIDS][i].consumeraddress,\r\n             RFIDS: consumer.somebuyer[ RRFIDS][i].RFIDS\r\n    \r\n   \r\n                           \r\n }));  \r\n     \r\n     \r\n      \r\n  } \r\n       \r\n     \r\n        function drugbought(address payable _consumeraddr, bytes32 _customernam, bytes32 drugsRFID, uint pricing ) public returns (address payable suchacustomer, bytes32 customername, bytes32 thedrugandRFID, uint priceofdrug) {\r\n          i=0;\r\n           consumer.thecustomerscount=0;\r\n            consumer.thecustomerscount++;\r\n            pricing =0;\r\n           consumer.consumeraddress;\r\n         consumer.customername;\r\n       \r\n         consumer.price=0;\r\n         consumer.RFIDS;  \r\n           \r\n             consumer.somebuyer[ drugsRFID][i].consumeraddress;\r\n             consumer.somebuyer[ drugsRFID][i].customername;\r\n             consumer.somebuyer[ drugsRFID][i].price=0;\r\n             consumer.somebuyer[ drugsRFID][i].RFIDS;\r\n                  \r\n                  \r\n                   // Make sure the array has address inside and just RFID\r\n                   consumer.buyers[_consumeraddr][i].consumeraddress =  _consumeraddr;\r\n             \r\n                   require( consumer.buyers[_consumeraddr][i].consumeraddress  ==  _consumeraddr  || consumer.somebuyer[drugsRFID][i].RFIDS  ==  drugsRFID);\r\n                  //  require(consumer.somebuyer[drugsRFID][i].RFIDS == drugsRFID);\r\n                   \r\n                    \r\n                consumer.somebuyer[ drugsRFID][i].consumeraddress = _consumeraddr;\r\n                consumer.somebuyer[ drugsRFID][i].customername =_customernam;\r\n                consumer.somebuyer[ drugsRFID][i].price =pricing;\r\n                \r\n                suchacustomer =  consumer.somebuyer[ drugsRFID][i].consumeraddress;\r\n                customername = consumer.somebuyer[ drugsRFID][i].customername;\r\n                thedrugandRFID= consumer.somebuyer[ drugsRFID][i].RFIDS;\r\n                pricing = consumer.somebuyer[ drugsRFID][i].price;\r\n\r\n         return ( suchacustomer, customername , thedrugandRFID, pricing);\r\n         \r\n            \r\n        }\r\n    \r\n  /*   function verify(bytes32 _RFID)  public{\r\n           uint vry;\r\n          Industry industrye = Industry(vry);\r\n\r\n\r\n          industrye.providecustomerpermission( _RFID);\r\n     }\r\n     \r\n   */\r\n\r\n function  sendescrow(address payable escrowparticipator, bytes32 escrowparticipatorname, uint escrowparticipatoramount) public payable {\r\n          EscrowComplianceCecker.sendescrow( escrowparticipator,  escrowparticipatorname, escrowparticipatoramount);\r\n      }\r\n      \r\n      \r\n      \r\n      function returnbackescrow (address payable _escrowvictimaddress, bytes32 _escrowvictimmame, uint _escrowvictimmoney) public payable{\r\n             EscrowComplianceCecker.returnbackescrow( _escrowvictimaddress,  _escrowvictimmame,  _escrowvictimmoney)    ;\r\n      }\r\n      \r\n      function deposit(address payable  donator, address payable receipient, uint amount) public payable {\r\n            EscrowComplianceCecker.deposit( donator,  receipient,  amount);   \r\n      }\r\n   \r\nfunction withdraw(uint balanceamount, uint escrowbalancenow) public payable  {\r\n         EscrowComplianceCecker.withdraw(balanceamount,escrowbalancenow);\r\n         \r\n          }\r\n     \r\n     function balances() public view returns(uint) {\r\n          EscrowComplianceCecker.balances(); \r\n     }\r\n     \r\n     \r\n  function claimPayment(address payable  yourcurrentowner, uint256 amount, uint256 nonce, bytes memory signature,address payable receipientaddress,bytes32 hashes)\r\npublic payable {\r\n    EscrowComplianceCecker.claimPayment(yourcurrentowner, amount, nonce, signature, receipientaddress, hashes);\r\n    \r\n}\r\n\r\n\r\n\r\n}",
  "sourcePath": "C:/Users/hp/eth-thedrugtesttutor/contracts/Consumer.sol",
  "compiler": {
    "name": "solc",
    "version": "0.5.0+commit.1d4f565a.Emscripten.clang"
  },
  "schemaVersion": "3.0.6",
  "updatedAt": "2019-06-28T08:18:16.549Z",
  "devdoc": {
    "methods": {}
  },
  "userdoc": {
    "methods": {
      "kill(address)": {
        "notice": "destroy the contract and reclaim the leftover funds."
      },
      "splitSignature(bytes)": {
        "notice": "signature methods."
      }
    }
  }
}