{
  "contractName": "EscrowComplianceCecker",
  "abi": [
    {
      "constant": true,
      "inputs": [
        {
          "name": "",
          "type": "uint256"
        }
      ],
      "name": "proposals",
      "outputs": [
        {
          "name": "escrowparticipantaddress",
          "type": "address"
        },
        {
          "name": "escrowparticipantname",
          "type": "bytes32"
        },
        {
          "name": "escrowparticipantsinitialamountputin",
          "type": "uint256"
        },
        {
          "name": "escrowparticipanttimestamp",
          "type": "bytes32"
        },
        {
          "name": "escrowparticipantcount",
          "type": "uint256"
        }
      ],
      "payable": false,
      "stateMutability": "view",
      "type": "function",
      "signature": "0x013cf08b"
    },
    {
      "constant": true,
      "inputs": [],
      "name": "escrowbalance",
      "outputs": [
        {
          "name": "",
          "type": "uint256"
        }
      ],
      "payable": false,
      "stateMutability": "view",
      "type": "function",
      "signature": "0x1dec8f5e"
    },
    {
      "constant": true,
      "inputs": [],
      "name": "escrowownaddress",
      "outputs": [
        {
          "name": "",
          "type": "address"
        }
      ],
      "payable": false,
      "stateMutability": "view",
      "type": "function",
      "signature": "0x50660346"
    },
    {
      "constant": true,
      "inputs": [],
      "name": "thereceivertopay",
      "outputs": [
        {
          "name": "",
          "type": "address"
        }
      ],
      "payable": false,
      "stateMutability": "view",
      "type": "function",
      "signature": "0x9044aa7a"
    },
    {
      "constant": true,
      "inputs": [
        {
          "name": "",
          "type": "uint256"
        }
      ],
      "name": "punishings",
      "outputs": [
        {
          "name": "escrowvictimaddress",
          "type": "address"
        },
        {
          "name": "escrowvictimmame",
          "type": "bytes32"
        },
        {
          "name": "escrowvictimmoney",
          "type": "uint256"
        },
        {
          "name": "escrowvictimtimestamp",
          "type": "bytes32"
        },
        {
          "name": "escrowvictimcount",
          "type": "uint256"
        }
      ],
      "payable": false,
      "stateMutability": "view",
      "type": "function",
      "signature": "0xa44dacdd"
    },
    {
      "constant": true,
      "inputs": [],
      "name": "amountrequired",
      "outputs": [
        {
          "name": "",
          "type": "uint256"
        }
      ],
      "payable": false,
      "stateMutability": "view",
      "type": "function",
      "signature": "0xbe8a7719"
    },
    {
      "constant": true,
      "inputs": [],
      "name": "thereceivertopaybalance",
      "outputs": [
        {
          "name": "",
          "type": "uint256"
        }
      ],
      "payable": false,
      "stateMutability": "view",
      "type": "function",
      "signature": "0xd2c5e34c"
    },
    {
      "anonymous": false,
      "inputs": [
        {
          "indexed": false,
          "name": "wehaveescrowownaddress",
          "type": "address"
        },
        {
          "indexed": false,
          "name": "wehaveescrowparticipator",
          "type": "address"
        },
        {
          "indexed": false,
          "name": "wehaveescrowparticipatoramount",
          "type": "uint256"
        }
      ],
      "name": "pleasesendmyescrow",
      "type": "event",
      "signature": "0x40ec2f3ec98d49af1ad53e142b599d19b76ce8f5bb674ae8ec4d4876bcb1680b"
    },
    {
      "anonymous": false,
      "inputs": [
        {
          "indexed": false,
          "name": "donatorhere",
          "type": "address"
        },
        {
          "indexed": false,
          "name": "receipienthere",
          "type": "address"
        },
        {
          "indexed": false,
          "name": "amounthere",
          "type": "uint256"
        }
      ],
      "name": "logdeposits",
      "type": "event",
      "signature": "0x2d5850082aa06d4d84f7fd35d30c5007fbb5da417488a915ef296da60b59f034"
    },
    {
      "anonymous": false,
      "inputs": [
        {
          "indexed": false,
          "name": "from",
          "type": "address"
        },
        {
          "indexed": false,
          "name": "receipientaddress",
          "type": "address"
        },
        {
          "indexed": false,
          "name": "amount",
          "type": "uint256"
        }
      ],
      "name": "Sent",
      "type": "event",
      "signature": "0x3990db2d31862302a685e8086b5755072a6e2b5b780af1ee81ece35ee3cd3345"
    },
    {
      "constant": false,
      "inputs": [
        {
          "name": "escrowparticipator",
          "type": "address"
        },
        {
          "name": "escrowparticipatorname",
          "type": "bytes32"
        },
        {
          "name": "escrowparticipatoramount",
          "type": "uint256"
        }
      ],
      "name": "sendescrow",
      "outputs": [],
      "payable": true,
      "stateMutability": "payable",
      "type": "function",
      "signature": "0x81f7edc9"
    },
    {
      "constant": false,
      "inputs": [
        {
          "name": "_escrowvictimaddress",
          "type": "address"
        },
        {
          "name": "_escrowvictimmame",
          "type": "bytes32"
        },
        {
          "name": "_escrowvictimmoney",
          "type": "uint256"
        }
      ],
      "name": "returnbackescrow",
      "outputs": [],
      "payable": true,
      "stateMutability": "payable",
      "type": "function",
      "signature": "0xd7b8be0b"
    },
    {
      "constant": false,
      "inputs": [
        {
          "name": "donator",
          "type": "address"
        },
        {
          "name": "receipient",
          "type": "address"
        },
        {
          "name": "amount",
          "type": "uint256"
        }
      ],
      "name": "deposit",
      "outputs": [],
      "payable": true,
      "stateMutability": "payable",
      "type": "function",
      "signature": "0x8340f549"
    },
    {
      "constant": false,
      "inputs": [
        {
          "name": "balanceamount",
          "type": "uint256"
        },
        {
          "name": "escrowbalancenow",
          "type": "uint256"
        }
      ],
      "name": "withdraw",
      "outputs": [],
      "payable": true,
      "stateMutability": "payable",
      "type": "function",
      "signature": "0x441a3e70"
    },
    {
      "constant": true,
      "inputs": [],
      "name": "balances",
      "outputs": [
        {
          "name": "",
          "type": "uint256"
        }
      ],
      "payable": false,
      "stateMutability": "view",
      "type": "function",
      "signature": "0x7bb98a68"
    },
    {
      "constant": false,
      "inputs": [
        {
          "name": "yourcurrentowner",
          "type": "address"
        },
        {
          "name": "amount",
          "type": "uint256"
        },
        {
          "name": "nonce",
          "type": "uint256"
        },
        {
          "name": "signature",
          "type": "bytes"
        },
        {
          "name": "receipientaddress",
          "type": "address"
        },
        {
          "name": "hashes",
          "type": "bytes32"
        }
      ],
      "name": "claimPayment",
      "outputs": [],
      "payable": true,
      "stateMutability": "payable",
      "type": "function",
      "signature": "0x930c8ee0"
    },
    {
      "constant": false,
      "inputs": [
        {
          "name": "entitymustgethismoneyback",
          "type": "address"
        }
      ],
      "name": "kill",
      "outputs": [],
      "payable": true,
      "stateMutability": "payable",
      "type": "function",
      "signature": "0xcbf0b0c0"
    },
    {
      "constant": false,
      "inputs": [
        {
          "name": "sig",
          "type": "bytes"
        }
      ],
      "name": "splitSignature",
      "outputs": [
        {
          "name": "v",
          "type": "uint8"
        },
        {
          "name": "r",
          "type": "bytes32"
        },
        {
          "name": "s",
          "type": "bytes32"
        }
      ],
      "payable": true,
      "stateMutability": "payable",
      "type": "function",
      "signature": "0xa7bb5803"
    },
    {
      "constant": true,
      "inputs": [
        {
          "name": "yourcurrentowner",
          "type": "address"
        },
        {
          "name": "hash",
          "type": "bytes32"
        },
        {
          "name": "v",
          "type": "uint8"
        },
        {
          "name": "r",
          "type": "bytes32"
        },
        {
          "name": "s",
          "type": "bytes32"
        }
      ],
      "name": "verify",
      "outputs": [
        {
          "name": "",
          "type": "bool"
        }
      ],
      "payable": false,
      "stateMutability": "pure",
      "type": "function",
      "signature": "0x506535f3"
    },
    {
      "constant": false,
      "inputs": [
        {
          "name": "message",
          "type": "bytes32"
        },
        {
          "name": "sig",
          "type": "bytes"
        },
        {
          "name": "myman",
          "type": "address"
        }
      ],
      "name": "recoverSigner",
      "outputs": [
        {
          "name": "",
          "type": "bool"
        }
      ],
      "payable": true,
      "stateMutability": "payable",
      "type": "function",
      "signature": "0x135aa1a4"
    }
  ],
  "bytecode": "0x6080604052600260005573fd2c3e27bfaccf842424e48dc72cb18ba48e9457600160006101000a81548173ffffffffffffffffffffffffffffffffffffffff021916908373ffffffffffffffffffffffffffffffffffffffff160217905550600260009054906101000a900473ffffffffffffffffffffffffffffffffffffffff1673ffffffffffffffffffffffffffffffffffffffff1631600355600160009054906101000a900473ffffffffffffffffffffffffffffffffffffffff1673ffffffffffffffffffffffffffffffffffffffff16316004553480156100e457600080fd5b50612285806100f46000396000f3fe6080604052600436106100f1576000357c0100000000000000000000000000000000000000000000000000000000900463ffffffff168063013cf08b146100f6578063135aa1a41461018d5780631dec8f5e1461028a578063441a3e70146102b5578063506535f3146102ed57806350660346146103815780637bb98a68146103d857806381f7edc9146104035780638340f5491461045b5780639044aa7a146104c9578063930c8ee014610520578063a44dacdd14610639578063a7bb5803146106d0578063be8a7719146107b3578063cbf0b0c0146107de578063d2c5e34c14610822578063d7b8be0b1461084d575b600080fd5b34801561010257600080fd5b5061012f6004803603602081101561011957600080fd5b81019080803590602001909291905050506108a5565b604051808673ffffffffffffffffffffffffffffffffffffffff1673ffffffffffffffffffffffffffffffffffffffff1681526020018581526020018481526020018381526020018281526020019550505050505060405180910390f35b610270600480360360608110156101a357600080fd5b8101908080359060200190929190803590602001906401000000008111156101ca57600080fd5b8201836020820111156101dc57600080fd5b803590602001918460018302840111640100000000831117156101fe57600080fd5b91908080601f016020809104026020016040519081016040528093929190818152602001838380828437600081840152601f19601f820116905080830192505050505050509192919290803573ffffffffffffffffffffffffffffffffffffffff16906020019092919050505061090a565b604051808215151515815260200191505060405180910390f35b34801561029657600080fd5b5061029f610995565b6040518082815260200191505060405180910390f35b6102eb600480360360408110156102cb57600080fd5b81019080803590602001909291908035906020019092919050505061099b565b005b3480156102f957600080fd5b50610367600480360360a081101561031057600080fd5b81019080803573ffffffffffffffffffffffffffffffffffffffff16906020019092919080359060200190929190803560ff1690602001909291908035906020019092919080359060200190929190505050610a38565b604051808215151515815260200191505060405180910390f35b34801561038d57600080fd5b50610396610b0d565b604051808273ffffffffffffffffffffffffffffffffffffffff1673ffffffffffffffffffffffffffffffffffffffff16815260200191505060405180910390f35b3480156103e457600080fd5b506103ed610b33565b6040518082815260200191505060405180910390f35b6104596004803603606081101561041957600080fd5b81019080803573ffffffffffffffffffffffffffffffffffffffff1690602001909291908035906020019092919080359060200190929190505050610b3d565b005b6104c76004803603606081101561047157600080fd5b81019080803573ffffffffffffffffffffffffffffffffffffffff169060200190929190803573ffffffffffffffffffffffffffffffffffffffff169060200190929190803590602001909291905050506112ee565b005b3480156104d557600080fd5b506104de61142a565b604051808273ffffffffffffffffffffffffffffffffffffffff1673ffffffffffffffffffffffffffffffffffffffff16815260200191505060405180910390f35b610637600480360360c081101561053657600080fd5b81019080803573ffffffffffffffffffffffffffffffffffffffff16906020019092919080359060200190929190803590602001909291908035906020019064010000000081111561058757600080fd5b82018360208201111561059957600080fd5b803590602001918460018302840111640100000000831117156105bb57600080fd5b91908080601f016020809104026020016040519081016040528093929190818152602001838380828437600081840152601f19601f820116905080830192505050505050509192919290803573ffffffffffffffffffffffffffffffffffffffff16906020019092919080359060200190929190505050611450565b005b34801561064557600080fd5b506106726004803603602081101561065c57600080fd5b8101908080359060200190929190505050611629565b604051808673ffffffffffffffffffffffffffffffffffffffff1673ffffffffffffffffffffffffffffffffffffffff1681526020018581526020018481526020018381526020018281526020019550505050505060405180910390f35b610789600480360360208110156106e657600080fd5b810190808035906020019064010000000081111561070357600080fd5b82018360208201111561071557600080fd5b8035906020019184600183028401116401000000008311171561073757600080fd5b91908080601f016020809104026020016040519081016040528093929190818152602001838380828437600081840152601f19601f82011690508083019250505050505050919291929050505061168e565b604051808460ff1660ff168152602001838152602001828152602001935050505060405180910390f35b3480156107bf57600080fd5b506107c8611705565b6040518082815260200191505060405180910390f35b610820600480360360208110156107f457600080fd5b81019080803573ffffffffffffffffffffffffffffffffffffffff16906020019092919050505061170b565b005b34801561082e57600080fd5b5061083761175e565b6040518082815260200191505060405180910390f35b6108a36004803603606081101561086357600080fd5b81019080803573ffffffffffffffffffffffffffffffffffffffff1690602001909291908035906020019092919080359060200190929190505050611764565b005b6009818154811015156108b457fe5b90600052602060002090600602016000915090508060000160009054906101000a900473ffffffffffffffffffffffffffffffffffffffff16908060010154908060020154908060030154908060040154905085565b6000806000806109198661168e565b92509250925060018784848460405160008152602001604052604051808581526020018460ff1660ff1681526020018381526020018281526020019450505050506020604051602081039080840390855afa15801561097c573d6000803e3d6000fd5b5050506020604051035150600193505050509392505050565b60045481565b6000915060009050806004819055506004548211151515610a24576040517f08c379a00000000000000000000000000000000000000000000000000000000081526004018080602001828103825260158152602001807f496e73756666696369656e742062616c616e63652e000000000000000000000081525060200191505060405180910390fd5b816004600082825403925050819055505050565b600080610a6a866040516020018082815260200191505060405160208183030381529060405280519060200120612201565b90508673ffffffffffffffffffffffffffffffffffffffff1660018287878760405160008152602001604052604051808581526020018460ff1660ff1681526020018381526020018281526020019450505050506020604051602081039080840390855afa158015610ae0573d6000803e3d6000fd5b5050506020604051035173ffffffffffffffffffffffffffffffffffffffff161491505095945050505050565b600160009054906101000a900473ffffffffffffffffffffffffffffffffffffffff1681565b6000600454905090565b60008090506000600a6004018190555060008090506000600a60020181905550600a600401549150819050600a60000160009054906101000a90505084600a60050160008773ffffffffffffffffffffffffffffffffffffffff1673ffffffffffffffffffffffffffffffffffffffff168152602001908152602001600020826103e881101515610bca57fe5b6006020160000160006101000a81548173ffffffffffffffffffffffffffffffffffffffff021916908373ffffffffffffffffffffffffffffffffffffffff16021790555083600a60050160008773ffffffffffffffffffffffffffffffffffffffff1673ffffffffffffffffffffffffffffffffffffffff168152602001908152602001600020826103e881101515610c6057fe5b60060201600101819055506000600a60050160008773ffffffffffffffffffffffffffffffffffffffff1673ffffffffffffffffffffffffffffffffffffffff168152602001908152602001600020826103e881101515610cbd57fe5b600602016002018190555082600a60050160008773ffffffffffffffffffffffffffffffffffffffff1673ffffffffffffffffffffffffffffffffffffffff168152602001908152602001600020826103e881101515610d1957fe5b60060201600201819055507f40ec2f3ec98d49af1ad53e142b599d19b76ce8f5bb674ae8ec4d4876bcb1680b600160009054906101000a900473ffffffffffffffffffffffffffffffffffffffff16600a60050160008873ffffffffffffffffffffffffffffffffffffffff1673ffffffffffffffffffffffffffffffffffffffff168152602001908152602001600020836103e881101515610db857fe5b6006020160000160009054906101000a900473ffffffffffffffffffffffffffffffffffffffff16600a60050160008973ffffffffffffffffffffffffffffffffffffffff1673ffffffffffffffffffffffffffffffffffffffff168152602001908152602001600020846103e881101515610e3057fe5b6006020160020154604051808473ffffffffffffffffffffffffffffffffffffffff1673ffffffffffffffffffffffffffffffffffffffff1681526020018373ffffffffffffffffffffffffffffffffffffffff1673ffffffffffffffffffffffffffffffffffffffff168152602001828152602001935050505060405180910390a1600a60050160008673ffffffffffffffffffffffffffffffffffffffff1673ffffffffffffffffffffffffffffffffffffffff168152602001908152602001600020816103e881101515610f0357fe5b6006020160000160009054906101000a900473ffffffffffffffffffffffffffffffffffffffff1673ffffffffffffffffffffffffffffffffffffffff166108fc600a60050160008873ffffffffffffffffffffffffffffffffffffffff1673ffffffffffffffffffffffffffffffffffffffff168152602001908152602001600020836103e881101515610f9457fe5b60060201600201549081150290604051600060405180830381858888f19350505050158015610fc7573d6000803e3d6000fd5b50600a60050160008673ffffffffffffffffffffffffffffffffffffffff1673ffffffffffffffffffffffffffffffffffffffff168152602001908152602001600020816103e88110151561101857fe5b6006020160020154600460008282540192505081905550600960a060405190810160405280600a60050160008973ffffffffffffffffffffffffffffffffffffffff1673ffffffffffffffffffffffffffffffffffffffff168152602001908152602001600020846103e88110151561108d57fe5b6006020160000160009054906101000a900473ffffffffffffffffffffffffffffffffffffffff1673ffffffffffffffffffffffffffffffffffffffff168152602001600a60050160008973ffffffffffffffffffffffffffffffffffffffff1673ffffffffffffffffffffffffffffffffffffffff168152602001908152602001600020846103e88110151561112057fe5b60060201600101548152602001600a60050160008973ffffffffffffffffffffffffffffffffffffffff1673ffffffffffffffffffffffffffffffffffffffff168152602001908152602001600020846103e88110151561117d57fe5b60060201600201548152602001600a60050160008973ffffffffffffffffffffffffffffffffffffffff1673ffffffffffffffffffffffffffffffffffffffff168152602001908152602001600020846103e8811015156111da57fe5b60060201600301548152602001600a60050160008973ffffffffffffffffffffffffffffffffffffffff1673ffffffffffffffffffffffffffffffffffffffff168152602001908152602001600020846103e88110151561123757fe5b60060201600401548152509080600181540180825580915050906001820390600052602060002090600602016000909192909190915060008201518160000160006101000a81548173ffffffffffffffffffffffffffffffffffffffff021916908373ffffffffffffffffffffffffffffffffffffffff1602179055506020820151816001015560408201518160020155606082015181600301556080820151816004015550505080806001019150505050505050565b8273ffffffffffffffffffffffffffffffffffffffff166108fc829081150290604051600060405180830381858888f19350505050158015611334573d6000803e3d6000fd5b508060046000828254019250508190555081600160006101000a81548173ffffffffffffffffffffffffffffffffffffffff021916908373ffffffffffffffffffffffffffffffffffffffff1602179055507f2d5850082aa06d4d84f7fd35d30c5007fbb5da417488a915ef296da60b59f034838383604051808473ffffffffffffffffffffffffffffffffffffffff1673ffffffffffffffffffffffffffffffffffffffff1681526020018373ffffffffffffffffffffffffffffffffffffffff1673ffffffffffffffffffffffffffffffffffffffff168152602001828152602001935050505060405180910390a1505050565b600260009054906101000a900473ffffffffffffffffffffffffffffffffffffffff1681565b60008090508590506000809050600080905086905088600260006101000a81548173ffffffffffffffffffffffffffffffffffffffff021916908373ffffffffffffffffffffffffffffffffffffffff1602179055506007600082815260200190815260200160002060009054906101000a900460ff161515156114d357600080fd5b60016007600089815260200190815260200160002060006101000a81548160ff0219169083151502179055506001151561150e85888c61090a565b151514151561151c57600080fd5b8473ffffffffffffffffffffffffffffffffffffffff166108fc899081150290604051600060405180830381858888f19350505050158015611562573d6000803e3d6000fd5b50878573ffffffffffffffffffffffffffffffffffffffff16310391507f3990db2d31862302a685e8086b5755072a6e2b5b780af1ee81ece35ee3cd334589868a604051808473ffffffffffffffffffffffffffffffffffffffff1673ffffffffffffffffffffffffffffffffffffffff1681526020018373ffffffffffffffffffffffffffffffffffffffff1673ffffffffffffffffffffffffffffffffffffffff168152602001828152602001935050505060405180910390a1505050505050505050565b60088181548110151561163857fe5b90600052602060002090600602016000915090508060000160009054906101000a900473ffffffffffffffffffffffffffffffffffffffff16908060010154908060020154908060030154908060040154905085565b6000806000604184511415156116a357600080fd5b604051602081015192506040810151915060ff604182015116935050601b8360ff1610156116d257601b830192505b601b8360ff16141580156116ea5750601c8360ff1614155b156116fd578282829250925092506116fe565b5b9193909250565b60005481565b8073ffffffffffffffffffffffffffffffffffffffff163373ffffffffffffffffffffffffffffffffffffffff1614151561174557600080fd5b3373ffffffffffffffffffffffffffffffffffffffff16ff5b60035481565b6000809050600080905060008090506000601060040181905550600a60000160009054906101000a9050506000601060050160008873ffffffffffffffffffffffffffffffffffffffff1673ffffffffffffffffffffffffffffffffffffffff168152602001908152602001600020836103e8811015156117e157fe5b600602016002018190555083601060050160008873ffffffffffffffffffffffffffffffffffffffff1673ffffffffffffffffffffffffffffffffffffffff168152602001908152602001600020836103e88110151561183d57fe5b600602016002018190555084601060050160008873ffffffffffffffffffffffffffffffffffffffff1673ffffffffffffffffffffffffffffffffffffffff168152602001908152602001600020836103e88110151561189957fe5b600602016001018190555085601060050160008873ffffffffffffffffffffffffffffffffffffffff1673ffffffffffffffffffffffffffffffffffffffff168152602001908152602001600020836103e8811015156118f557fe5b6006020160000160006101000a81548173ffffffffffffffffffffffffffffffffffffffff021916908373ffffffffffffffffffffffffffffffffffffffff1602179055508573ffffffffffffffffffffffffffffffffffffffff16600a6005016000600a60000160009054906101000a900473ffffffffffffffffffffffffffffffffffffffff1673ffffffffffffffffffffffffffffffffffffffff1673ffffffffffffffffffffffffffffffffffffffff168152602001908152602001600020846103e8811015156119c657fe5b6006020160000160009054906101000a900473ffffffffffffffffffffffffffffffffffffffff1673ffffffffffffffffffffffffffffffffffffffff16141515611a1057600080fd5b60106004015460068190555060066000815480929190600101919050559150601060000160009054906101000a90505085601060050160008873ffffffffffffffffffffffffffffffffffffffff1673ffffffffffffffffffffffffffffffffffffffff168152602001908152602001600020836103e881101515611a9157fe5b6006020160000160006101000a81548173ffffffffffffffffffffffffffffffffffffffff021916908373ffffffffffffffffffffffffffffffffffffffff160217905550600a6005016000600a60000160009054906101000a900473ffffffffffffffffffffffffffffffffffffffff1673ffffffffffffffffffffffffffffffffffffffff1673ffffffffffffffffffffffffffffffffffffffff168152602001908152602001600020836103e881101515611b4b57fe5b6006020160020154601060050160008873ffffffffffffffffffffffffffffffffffffffff1673ffffffffffffffffffffffffffffffffffffffff168152602001908152602001600020836103e881101515611ba357fe5b6006020160020181905550600a6005016000600a60000160009054906101000a900473ffffffffffffffffffffffffffffffffffffffff1673ffffffffffffffffffffffffffffffffffffffff1673ffffffffffffffffffffffffffffffffffffffff168152602001908152602001600020836103e881101515611c2357fe5b6006020160000160009054906101000a900473ffffffffffffffffffffffffffffffffffffffff16601060050160008873ffffffffffffffffffffffffffffffffffffffff1673ffffffffffffffffffffffffffffffffffffffff168152602001908152602001600020836103e881101515611c9b57fe5b6006020160000160006101000a81548173ffffffffffffffffffffffffffffffffffffffff021916908373ffffffffffffffffffffffffffffffffffffffff160217905550601060050160008773ffffffffffffffffffffffffffffffffffffffff1673ffffffffffffffffffffffffffffffffffffffff168152602001908152602001600020826103e881101515611d3057fe5b600602016002015490506000601060050160008873ffffffffffffffffffffffffffffffffffffffff1673ffffffffffffffffffffffffffffffffffffffff168152602001908152602001600020836103e881101515611d8c57fe5b6006020160000160009054906101000a900473ffffffffffffffffffffffffffffffffffffffff169050600160009054906101000a900473ffffffffffffffffffffffffffffffffffffffff1673ffffffffffffffffffffffffffffffffffffffff163373ffffffffffffffffffffffffffffffffffffffff16141515611e1257600080fd5b600160009054906101000a900473ffffffffffffffffffffffffffffffffffffffff1673ffffffffffffffffffffffffffffffffffffffff166108fc839081150290604051600060405180830381858888f19350505050158015611e7a573d6000803e3d6000fd5b50611e878260045461099b565b7f3990db2d31862302a685e8086b5755072a6e2b5b780af1ee81ece35ee3cd3345600160009054906101000a900473ffffffffffffffffffffffffffffffffffffffff168284604051808473ffffffffffffffffffffffffffffffffffffffff1673ffffffffffffffffffffffffffffffffffffffff1681526020018373ffffffffffffffffffffffffffffffffffffffff1673ffffffffffffffffffffffffffffffffffffffff168152602001828152602001935050505060405180910390a1600860a060405190810160405280601060050160008b73ffffffffffffffffffffffffffffffffffffffff1673ffffffffffffffffffffffffffffffffffffffff168152602001908152602001600020866103e881101515611fa657fe5b6006020160000160009054906101000a900473ffffffffffffffffffffffffffffffffffffffff1673ffffffffffffffffffffffffffffffffffffffff168152602001601060050160008b73ffffffffffffffffffffffffffffffffffffffff1673ffffffffffffffffffffffffffffffffffffffff168152602001908152602001600020866103e88110151561203957fe5b60060201600101548152602001601060050160008b73ffffffffffffffffffffffffffffffffffffffff1673ffffffffffffffffffffffffffffffffffffffff168152602001908152602001600020866103e88110151561209657fe5b60060201600201548152602001601060050160008b73ffffffffffffffffffffffffffffffffffffffff1673ffffffffffffffffffffffffffffffffffffffff168152602001908152602001600020866103e8811015156120f357fe5b60060201600301548152602001601060050160008b73ffffffffffffffffffffffffffffffffffffffff1673ffffffffffffffffffffffffffffffffffffffff168152602001908152602001600020866103e88110151561215057fe5b60060201600401548152509080600181540180825580915050906001820390600052602060002090600602016000909192909190915060008201518160000160006101000a81548173ffffffffffffffffffffffffffffffffffffffff021916908373ffffffffffffffffffffffffffffffffffffffff1602179055506020820151816001015560408201518160020155606082015181600301556080820151816004015550505050505050505050565b60008160405160200180807f19457468657265756d205369676e6564204d6573736167653a0a333200000000815250601c0182815260200191505060405160208183030381529060405280519060200120905091905056fea165627a7a723058208475579f1064523778b92d3dac1b3e3113cdb9bfb20317af6ecaa90716cab7a10029",
  "source": "pragma solidity >=0.4.0 <0.6.0;\r\n\r\ncontract EscrowComplianceCecker   {\r\n    \r\n    uint public amountrequired =2;\r\n    address payable public  escrowownaddress=0xfd2C3e27BfACcf842424e48dC72cb18ba48E9457;\r\n     address payable public thereceivertopay;\r\n     uint public thereceivertopaybalance = thereceivertopay.balance;\r\n    uint public escrowbalance =escrowownaddress.balance;\r\n    uint value;\r\n    uint m;\r\n    mapping(uint256 => bool) usedNonces;\r\n    \r\n    struct EscrowSentBack{\r\n        address   payable  escrowvictimaddress;\r\n        bytes32     escrowvictimmame;\r\n        uint      escrowvictimmoney;\r\n        bytes32   escrowvictimtimestamp;\r\n         uint      escrowvictimcount;\r\n        \r\n        mapping (address => EscrowSentBack[1000]) escrowteeser;\r\n    }\r\n     EscrowSentBack[] public punishings;\r\n    struct EscrowObtained{\r\n         address payable escrowparticipantaddress;\r\n         bytes32  escrowparticipantname;\r\n         uint       escrowparticipantsinitialamountputin;\r\n         bytes32      escrowparticipanttimestamp;\r\n         uint            escrowparticipantcount;\r\n        \r\n       mapping (address => EscrowObtained[1000])  escrowobtainees;\r\n       \r\n    } \r\n       EscrowObtained[] public proposals;\r\n       \r\n      \r\n     \r\n   EscrowObtained escrowobtainee;\r\n   EscrowSentBack escrowtees;\r\n    \r\n   /*  constructor(uint  _amountrequired) public  {\r\n        amountrequired = _amountrequired;\r\n        \r\n        \r\n}\r\n*/\r\nevent pleasesendmyescrow(address payable wehaveescrowownaddress,address payable wehaveescrowparticipator,  uint  wehaveescrowparticipatoramount);\r\n     function sendescrow(address payable escrowparticipator, bytes32 escrowparticipatorname, uint escrowparticipatoramount) public payable  {\r\n escrowobtainee.escrowobtainees;\r\n    \r\n//  uint escrowedvaluesent;\r\n// m=0;\r\n//We need to add memory to each on\r\n  \r\n   uint q = 0;\r\n   escrowobtainee.escrowparticipantcount =0;\r\n   uint obtcounter =0;\r\n   escrowobtainee.escrowparticipantsinitialamountputin =0;\r\n   q = escrowobtainee.escrowparticipantcount;\r\n      obtcounter = q;\r\n          \r\n    escrowobtainee.escrowparticipantaddress;\r\n     escrowobtainee.escrowparticipantname;\r\n     \r\n        escrowobtainee.escrowobtainees[escrowparticipator][obtcounter].escrowparticipantaddress = escrowparticipator;\r\n     \r\n        escrowobtainee.escrowobtainees[escrowparticipator][obtcounter].escrowparticipantname = escrowparticipatorname;\r\n     \r\n           escrowobtainee.escrowobtainees[escrowparticipator][obtcounter].escrowparticipantsinitialamountputin =0;\r\n     \r\n     escrowobtainee.escrowobtainees[escrowparticipator][obtcounter].escrowparticipantsinitialamountputin =escrowparticipatoramount;\r\n      \r\n      \r\n      \r\n       emit pleasesendmyescrow(escrowownaddress,escrowobtainee.escrowobtainees[escrowparticipator][obtcounter].escrowparticipantaddress, escrowobtainee.escrowobtainees[escrowparticipator][obtcounter].escrowparticipantsinitialamountputin);\r\n      \r\n      \r\n     //  require(escrowobtainee.escrowobtainees[escrowparticipator][obtcounter].escrowparticipantsinitialamountputin>= escrowbalance, \"This must revert to false since it is not enough\");\r\n        \r\n          escrowobtainee.escrowobtainees[escrowparticipator][obtcounter].escrowparticipantaddress.transfer(escrowobtainee.escrowobtainees[escrowparticipator][obtcounter].escrowparticipantsinitialamountputin);\r\n       \r\n     \r\n                         \r\n // escrowobtainee.escrowobtainees[escrowparticipator][obtcounter].escrowparticipantsinitialamountputin = escrowparticipatoramount;   \r\n                        \r\n                          escrowbalance +=     escrowobtainee.escrowobtainees[escrowparticipator][obtcounter].escrowparticipantsinitialamountputin;\r\n \r\n \r\n \r\n \r\n \r\n proposals.push(EscrowComplianceCecker.EscrowObtained({\r\n      escrowparticipantaddress: escrowobtainee.escrowobtainees[escrowparticipator][obtcounter].escrowparticipantaddress,\r\n      escrowparticipantname:escrowobtainee.escrowobtainees[escrowparticipator][obtcounter].escrowparticipantname,\r\n       escrowparticipantsinitialamountputin:escrowobtainee.escrowobtainees[escrowparticipator][obtcounter].escrowparticipantsinitialamountputin,\r\n      escrowparticipanttimestamp:escrowobtainee.escrowobtainees[escrowparticipator][obtcounter].escrowparticipanttimestamp,\r\n      escrowparticipantcount:escrowobtainee.escrowobtainees[escrowparticipator][obtcounter].escrowparticipantcount\r\n        // I HAVE TO ADD THE OTHER DETAILS\r\n \r\n            \r\n     \r\n }));  \r\n\r\n      obtcounter++;     \r\n}\r\n\r\n//we have to receive latest escrow\r\nfunction returnbackescrow (address payable _escrowvictimaddress, bytes32 _escrowvictimmame, uint _escrowvictimmoney) public payable {\r\n          uint  obtanothercounter=0;\r\n     uint counter =0;\r\n     uint mymoney=0;\r\n          \r\n          escrowtees.escrowvictimcount=0;\r\n         \r\n         \r\n           escrowtees.escrowteeser;\r\n           escrowobtainee.escrowobtainees;\r\n           escrowobtainee.escrowparticipantaddress;\r\n             //   uint      obtcounter;\r\n               escrowtees.escrowteeser[_escrowvictimaddress][counter].escrowvictimmoney=0;\r\n               escrowtees.escrowteeser[_escrowvictimaddress][counter].escrowvictimmoney=_escrowvictimmoney;\r\n               escrowtees.escrowteeser[_escrowvictimaddress][counter].escrowvictimmame = _escrowvictimmame;\r\n               escrowtees.escrowteeser[_escrowvictimaddress][counter].escrowvictimaddress =_escrowvictimaddress;\r\n               \r\n    require(escrowobtainee.escrowobtainees[ escrowobtainee.escrowparticipantaddress][obtanothercounter].escrowparticipantaddress == _escrowvictimaddress);\r\n                                      \r\n\r\n  m =escrowtees.escrowvictimcount;\r\n    counter = m++;\r\n    escrowtees.escrowvictimaddress;\r\n   escrowtees.escrowvictimmame;\r\n     escrowtees.escrowvictimmoney;\r\n     \r\n      escrowtees.escrowteeser[_escrowvictimaddress][counter].escrowvictimaddress =_escrowvictimaddress;\r\n      \r\n            \r\n     \r\n     escrowtees.escrowteeser[_escrowvictimaddress][counter].escrowvictimmoney = escrowobtainee.escrowobtainees[ escrowobtainee.escrowparticipantaddress][obtanothercounter].escrowparticipantsinitialamountputin;\r\n     escrowtees.escrowteeser[_escrowvictimaddress][counter].escrowvictimaddress =escrowobtainee.escrowobtainees[ escrowobtainee.escrowparticipantaddress][obtanothercounter].escrowparticipantaddress; \r\n//  escrowtees.escrowteeser[_escrowvictimaddress][counter].escrowvictimtimestamp =now;\r\n   \r\n    mymoney =    escrowtees.escrowteeser[_escrowvictimaddress][counter].escrowvictimmoney;\r\n   \r\n   address payable receipientaddress =  escrowtees.escrowteeser[_escrowvictimaddress][counter].escrowvictimaddress;\r\n    \r\n    require(msg.sender == escrowownaddress);\r\n     \r\n     escrowownaddress.transfer(mymoney);\r\n    \r\n     withdraw(mymoney,escrowbalance);\r\n\r\nemit Sent(escrowownaddress, receipientaddress, mymoney);\r\n\r\n    \r\n   \r\n punishings.push(EscrowComplianceCecker.EscrowSentBack({\r\n      escrowvictimaddress: escrowtees.escrowteeser[_escrowvictimaddress][counter].escrowvictimaddress,\r\n      escrowvictimmame:  escrowtees.escrowteeser[_escrowvictimaddress][counter].escrowvictimmame,\r\n       escrowvictimmoney: escrowtees.escrowteeser[_escrowvictimaddress][counter].escrowvictimmoney,\r\n      escrowvictimtimestamp: escrowtees.escrowteeser[_escrowvictimaddress][counter]. escrowvictimtimestamp,\r\n      escrowvictimcount: escrowtees.escrowteeser[_escrowvictimaddress][counter].escrowvictimcount\r\n       // I HAVE TO ADD THE OTHER DETAILS\r\n  \r\n            \r\n     \r\n }));  \r\n                                        \r\n\r\n    \r\n}\r\n \r\n \r\n \r\n \r\n           event logdeposits(address payable donatorhere, address payable receipienthere, uint amounthere);\r\n  \r\n    function deposit(address payable donator, address payable receipient, uint amount) public payable{\r\n           \r\n            donator.transfer(amount);\r\n         escrowbalance +=amount;\r\n         escrowownaddress =receipient;\r\n         emit logdeposits( donator, receipient, amount);\r\n    }\r\n     function withdraw(uint balanceamount, uint escrowbalancenow) public payable {\r\n         //Withdrawn from the escrowaddress balance\r\n          balanceamount=0;\r\n          escrowbalancenow=0;\r\n         escrowbalance = escrowbalancenow;\r\n         \r\n        require(balanceamount <= escrowbalance, \"Insufficient balance.\");\r\n         escrowbalance -=balanceamount;\r\n         \r\n         \r\n     }\r\n     \r\n    \r\n     function balances() public view returns(uint) {\r\n          return escrowbalance;   \r\n       \r\n     }\r\n event Sent(address payable from, address payable receipientaddress, uint amount);\r\n \r\n               \r\n   // THE NEW RECEIVER WILL USE THIS TO SIGN THE MESSAGE \r\n\r\n   //for the escrowobtainedaddress = receipient address produce this amount\r\n   //for deleting index\r\n   //(entityList[entityStructs[entityAddress].listPointer] == entityAddress);\r\n   \r\n   \r\n   //WE WILL USE IT TO RETRIEVE INFORMATION FOR THE ESCROW SO THAT THE ESCROW CAN ALSO SEE \r\n   //WHAT IS HAPPENING.\r\n    \r\n        \r\n        // THIS FUNCTION IS CALLED BY INDUSTRY; HE CLAIMS GOOD AFTER EXCHANGE;\r\n        //ACTUALLY CURRENT OWNER IS THE RECEIPIENT ADDRESS WHILE RECEIPIENTADDRESS IS THE SENDER ADDRESS, CAPICHE?\r\n    function claimPayment( address payable yourcurrentowner, uint amount, uint256 nonce, bytes memory signature,address payable receipientaddress, bytes32 hashes)\r\npublic payable {\r\n         \r\n        uint mycash=0;\r\n        mycash= amount;\r\n        uint getthebalance=0;\r\n        uint256 mynonce =0;\r\n        mynonce = nonce;\r\n      //  address payable entitytoclaimhismoney = receipientaddress;\r\n        \r\n    thereceivertopay = yourcurrentowner; \r\n\r\nrequire(!usedNonces[mynonce]);\r\nusedNonces[nonce] = true;\r\n// this recreates the message that was signed on the client\r\n// bytes32 message = prefixed(keccak256(abi.encodePacked(hashes)));\r\n    \r\nrequire( recoverSigner(hashes, signature, yourcurrentowner)==true  );\r\n\r\n\r\nreceipientaddress.transfer(amount);\r\ngetthebalance = receipientaddress.balance-amount;\r\n//withdraw(amount,thereceivertopaybalance);\r\nemit Sent(yourcurrentowner, receipientaddress, amount);\r\n\r\n}\r\n\r\n\r\n/// destroy the contract and reclaim the leftover funds.\r\nfunction kill(address payable entitymustgethismoneyback) public payable {\r\nrequire(msg.sender == entitymustgethismoneyback);\r\nselfdestruct(msg.sender);\r\n}\r\n\r\n\r\n\r\n/// signature methods.\r\nfunction splitSignature(bytes memory sig)\r\npublic payable\r\nreturns (uint8 v, bytes32 r, bytes32 s)\r\n{\r\n      \r\n\r\n  \r\nrequire(sig.length == 65);\r\nassembly {\r\n// first 32 bytes, after the length prefix.\r\n    \r\n \r\n   let sig := mload(0x40)\r\n     \r\n //   mstore ( 0x40, sig )\r\n   \r\n    \r\n\r\n\r\n //     r := mload(add(sig, 0x20))\r\n   //   s := mload(add(sig, 0x40))\r\n   //   v := byte(0, mload(add(sig, 0x60)))\r\n    // v := and(mload(add(sig, 65)), 255)\r\n\r\n//sv := and(mload(add(sig, 0x60)), 255)\r\n\r\nr := mload(add(sig, 32))\r\n// second 32 bytes.\r\ns := mload(add(sig, 64))\r\n// final byte (first byte of the next 32 bytes).\r\n//v := byte(0, mload(add(sig, 96)))\r\nv := and(mload(add(sig, 65)), 255)\r\n}\r\n\r\n\r\n//Version of signature should be 27 or 28, but 0 and 1 are also possible versions\r\n    if (v < 27) {\r\n      v += 27;\r\n    }\r\n\r\n   // If the version is correct return the signer address\r\n    if (v != 27 && v != 28) {\r\n     \r\n\r\nreturn (v, r, s);\r\n    }\r\n}\r\nfunction verify(address payable yourcurrentowner, bytes32 hash, uint8 v, bytes32 r, bytes32 s) public pure returns(bool) {\r\n\r\n    // bytes memory prefix = \"\\x19Ethereum Signed Message:\\n32\";\r\n   // bytes32 prefixedHash = (keccak256(abi.encodePacked(prefix, hash));\r\n\r\n  bytes32 prefixedHash = prefixed(keccak256(abi.encodePacked(hash)));\r\n    return ecrecover(prefixedHash, v, r, s) == yourcurrentowner;\r\n}\r\n\r\n//ANOTHER IMPLEMENTATION\r\n\r\n// HERE IS WHERE RECOVER SIGNER IS PASSED TO HIM SO THAT HE CAN GET HIS MONEY\r\nfunction recoverSigner(bytes32 message, bytes memory sig, address payable myman)\r\npublic payable\r\n\r\nreturns (bool)\r\n{          \r\n        \r\n        \r\n    //  address  mysigner = signer;\r\n\r\n      \r\n  (uint8 v, bytes32 r, bytes32 s) = splitSignature(sig);\r\n        \r\n   myman== ecrecover(message, v, r, s);\r\n     \r\n  return true;\r\n     \r\n}\r\n/// builds a prefixed hash to mimic the behavior of eth_sign.\r\nfunction prefixed(bytes32 hash) internal pure returns (bytes32) {\r\nreturn keccak256(abi.encodePacked(\"\\x19Ethereum Signed Message:\\n32\", hash));}\r\n\r\n    \r\n    \r\n  \r\n}\r\n    ",
  "sourcePath": "C:\\Users\\hp\\eth-thedrugtesttutor\\contracts\\EscrowComplianceCecker.sol",
  "compiler": {
    "name": "solc",
    "version": "0.5.0+commit.1d4f565a.Emscripten.clang"
  },
  "schemaVersion": "3.0.6",
  "updatedAt": "2019-06-28T08:18:16.911Z",
  "devdoc": {
    "methods": {}
  },
  "userdoc": {
    "methods": {
      "kill(address)": {
        "notice": "destroy the contract and reclaim the leftover funds."
      },
      "splitSignature(bytes)": {
        "notice": "signature methods."
      }
    }
  }
}