{
  "contractName": "Industry",
  "abi": [
    {
      "constant": true,
      "inputs": [
        {
          "name": "",
          "type": "uint256"
        }
      ],
      "name": "proposals",
      "outputs": [
        {
          "name": "escrowparticipantaddress",
          "type": "address"
        },
        {
          "name": "escrowparticipantname",
          "type": "bytes32"
        },
        {
          "name": "escrowparticipantsinitialamountputin",
          "type": "uint256"
        },
        {
          "name": "escrowparticipanttimestamp",
          "type": "bytes32"
        },
        {
          "name": "escrowparticipantcount",
          "type": "uint256"
        }
      ],
      "payable": false,
      "stateMutability": "view",
      "type": "function",
      "signature": "0x013cf08b"
    },
    {
      "constant": false,
      "inputs": [
        {
          "name": "message",
          "type": "bytes32"
        },
        {
          "name": "sig",
          "type": "bytes"
        },
        {
          "name": "myman",
          "type": "address"
        }
      ],
      "name": "recoverSigner",
      "outputs": [
        {
          "name": "",
          "type": "bool"
        }
      ],
      "payable": true,
      "stateMutability": "payable",
      "type": "function",
      "signature": "0x135aa1a4"
    },
    {
      "constant": true,
      "inputs": [],
      "name": "escrowbalance",
      "outputs": [
        {
          "name": "",
          "type": "uint256"
        }
      ],
      "payable": false,
      "stateMutability": "view",
      "type": "function",
      "signature": "0x1dec8f5e"
    },
    {
      "constant": true,
      "inputs": [
        {
          "name": "",
          "type": "uint256"
        }
      ],
      "name": "processingstructureses",
      "outputs": [
        {
          "name": "location",
          "type": "bytes32"
        },
        {
          "name": "hasdrug",
          "type": "bool"
        },
        {
          "name": "escrowamount",
          "type": "uint256"
        },
        {
          "name": "lastdestination",
          "type": "address"
        },
        {
          "name": "justhandedoveraddres",
          "type": "address"
        },
        {
          "name": "RFIDofthisdrug",
          "type": "bytes32"
        },
        {
          "name": "manufacturerofdrugstobesent",
          "type": "address"
        },
        {
          "name": "currentpersoncount",
          "type": "uint256"
        }
      ],
      "payable": false,
      "stateMutability": "view",
      "type": "function",
      "signature": "0x25686b26"
    },
    {
      "constant": true,
      "inputs": [
        {
          "name": "yourcurrentowner",
          "type": "address"
        },
        {
          "name": "hash",
          "type": "bytes32"
        },
        {
          "name": "v",
          "type": "uint8"
        },
        {
          "name": "r",
          "type": "bytes32"
        },
        {
          "name": "s",
          "type": "bytes32"
        }
      ],
      "name": "verify",
      "outputs": [
        {
          "name": "",
          "type": "bool"
        }
      ],
      "payable": false,
      "stateMutability": "pure",
      "type": "function",
      "signature": "0x506535f3"
    },
    {
      "constant": true,
      "inputs": [],
      "name": "escrowownaddress",
      "outputs": [
        {
          "name": "",
          "type": "address"
        }
      ],
      "payable": false,
      "stateMutability": "view",
      "type": "function",
      "signature": "0x50660346"
    },
    {
      "constant": true,
      "inputs": [
        {
          "name": "",
          "type": "uint256"
        }
      ],
      "name": "procedures",
      "outputs": [
        {
          "name": "currentproces",
          "type": "address"
        },
        {
          "name": "timestamp",
          "type": "bytes32"
        },
        {
          "name": "drugname",
          "type": "bytes32"
        },
        {
          "name": "numberofProcessingEntities",
          "type": "uint256"
        },
        {
          "name": "location",
          "type": "bytes32"
        },
        {
          "name": "receipient",
          "type": "address"
        },
        {
          "name": "escrowvalue",
          "type": "uint256"
        },
        {
          "name": "numOfProcesses",
          "type": "uint256"
        }
      ],
      "payable": false,
      "stateMutability": "view",
      "type": "function",
      "signature": "0x8b4556ae"
    },
    {
      "constant": true,
      "inputs": [],
      "name": "thereceivertopay",
      "outputs": [
        {
          "name": "",
          "type": "address"
        }
      ],
      "payable": false,
      "stateMutability": "view",
      "type": "function",
      "signature": "0x9044aa7a"
    },
    {
      "constant": true,
      "inputs": [
        {
          "name": "",
          "type": "uint256"
        }
      ],
      "name": "punishings",
      "outputs": [
        {
          "name": "escrowvictimaddress",
          "type": "address"
        },
        {
          "name": "escrowvictimmame",
          "type": "bytes32"
        },
        {
          "name": "escrowvictimmoney",
          "type": "uint256"
        },
        {
          "name": "escrowvictimtimestamp",
          "type": "bytes32"
        },
        {
          "name": "escrowvictimcount",
          "type": "uint256"
        }
      ],
      "payable": false,
      "stateMutability": "view",
      "type": "function",
      "signature": "0xa44dacdd"
    },
    {
      "constant": true,
      "inputs": [],
      "name": "processingstructures",
      "outputs": [
        {
          "name": "location",
          "type": "bytes32"
        },
        {
          "name": "hasdrug",
          "type": "bool"
        },
        {
          "name": "escrowamount",
          "type": "uint256"
        },
        {
          "name": "lastdestination",
          "type": "address"
        },
        {
          "name": "justhandedoveraddres",
          "type": "address"
        },
        {
          "name": "RFIDofthisdrug",
          "type": "bytes32"
        },
        {
          "name": "manufacturerofdrugstobesent",
          "type": "address"
        },
        {
          "name": "currentpersoncount",
          "type": "uint256"
        }
      ],
      "payable": false,
      "stateMutability": "view",
      "type": "function",
      "signature": "0xa491ead7"
    },
    {
      "constant": false,
      "inputs": [
        {
          "name": "sig",
          "type": "bytes"
        }
      ],
      "name": "splitSignature",
      "outputs": [
        {
          "name": "v",
          "type": "uint8"
        },
        {
          "name": "r",
          "type": "bytes32"
        },
        {
          "name": "s",
          "type": "bytes32"
        }
      ],
      "payable": true,
      "stateMutability": "payable",
      "type": "function",
      "signature": "0xa7bb5803"
    },
    {
      "constant": true,
      "inputs": [
        {
          "name": "",
          "type": "uint256"
        }
      ],
      "name": "self",
      "outputs": [
        {
          "name": "manufacturer",
          "type": "address"
        },
        {
          "name": "currentdrugpossessor",
          "type": "address"
        },
        {
          "name": "RFID",
          "type": "bytes32"
        },
        {
          "name": "drugname",
          "type": "bytes32"
        },
        {
          "name": "cost",
          "type": "uint256"
        },
        {
          "name": "temperature",
          "type": "int256"
        },
        {
          "name": "concentration",
          "type": "int256"
        },
        {
          "name": "location",
          "type": "bytes32"
        },
        {
          "name": "drugquality",
          "type": "bytes32"
        },
        {
          "name": "numOfDrugCount",
          "type": "uint256"
        }
      ],
      "payable": false,
      "stateMutability": "view",
      "type": "function",
      "signature": "0xaf1fba2f"
    },
    {
      "constant": true,
      "inputs": [],
      "name": "procent",
      "outputs": [
        {
          "name": "currentowner",
          "type": "address"
        },
        {
          "name": "receiver",
          "type": "address"
        },
        {
          "name": "publickey",
          "type": "uint256"
        },
        {
          "name": "currentownername",
          "type": "bytes32"
        },
        {
          "name": "receivername",
          "type": "bytes32"
        },
        {
          "name": "currentownerprocessingfee",
          "type": "uint256"
        },
        {
          "name": "role",
          "type": "bytes32"
        },
        {
          "name": "balance",
          "type": "uint256"
        },
        {
          "name": "RFIDofdrugtobesent",
          "type": "bytes32"
        },
        {
          "name": "currentownerscount",
          "type": "uint256"
        }
      ],
      "payable": false,
      "stateMutability": "view",
      "type": "function",
      "signature": "0xbce6007b"
    },
    {
      "constant": true,
      "inputs": [],
      "name": "amountrequired",
      "outputs": [
        {
          "name": "",
          "type": "uint256"
        }
      ],
      "payable": false,
      "stateMutability": "view",
      "type": "function",
      "signature": "0xbe8a7719"
    },
    {
      "constant": false,
      "inputs": [
        {
          "name": "entitymustgethismoneyback",
          "type": "address"
        }
      ],
      "name": "kill",
      "outputs": [],
      "payable": true,
      "stateMutability": "payable",
      "type": "function",
      "signature": "0xcbf0b0c0"
    },
    {
      "constant": true,
      "inputs": [],
      "name": "thereceivertopaybalance",
      "outputs": [
        {
          "name": "",
          "type": "uint256"
        }
      ],
      "payable": false,
      "stateMutability": "view",
      "type": "function",
      "signature": "0xd2c5e34c"
    },
    {
      "constant": true,
      "inputs": [
        {
          "name": "",
          "type": "uint256"
        }
      ],
      "name": "procenter",
      "outputs": [
        {
          "name": "currentowner",
          "type": "address"
        },
        {
          "name": "receiver",
          "type": "address"
        },
        {
          "name": "publickey",
          "type": "uint256"
        },
        {
          "name": "currentownername",
          "type": "bytes32"
        },
        {
          "name": "receivername",
          "type": "bytes32"
        },
        {
          "name": "currentownerprocessingfee",
          "type": "uint256"
        },
        {
          "name": "role",
          "type": "bytes32"
        },
        {
          "name": "balance",
          "type": "uint256"
        },
        {
          "name": "RFIDofdrugtobesent",
          "type": "bytes32"
        },
        {
          "name": "currentownerscount",
          "type": "uint256"
        }
      ],
      "payable": false,
      "stateMutability": "view",
      "type": "function",
      "signature": "0xf9eeaa05"
    },
    {
      "anonymous": false,
      "inputs": [
        {
          "indexed": false,
          "name": "_sender",
          "type": "address"
        },
        {
          "indexed": false,
          "name": "_sendername",
          "type": "bytes32"
        },
        {
          "indexed": false,
          "name": "_receipient",
          "type": "address"
        },
        {
          "indexed": false,
          "name": "receipientname",
          "type": "bytes32"
        },
        {
          "indexed": false,
          "name": "_RFID",
          "type": "bytes32"
        },
        {
          "indexed": false,
          "name": "_lastdestination",
          "type": "address"
        },
        {
          "indexed": false,
          "name": "processesnumber",
          "type": "uint256"
        }
      ],
      "name": "whatnewProcessingPhase",
      "type": "event",
      "signature": "0x65c55e0a28a92a8fa3a2e2ad5948854f00e4eedd11b2b20d3f2888faf6dbeb69"
    },
    {
      "anonymous": false,
      "inputs": [
        {
          "indexed": false,
          "name": "wehaveescrowownaddress",
          "type": "address"
        },
        {
          "indexed": false,
          "name": "wehaveescrowparticipator",
          "type": "address"
        },
        {
          "indexed": false,
          "name": "wehaveescrowparticipatoramount",
          "type": "uint256"
        }
      ],
      "name": "pleasesendmyescrow",
      "type": "event",
      "signature": "0x40ec2f3ec98d49af1ad53e142b599d19b76ce8f5bb674ae8ec4d4876bcb1680b"
    },
    {
      "anonymous": false,
      "inputs": [
        {
          "indexed": false,
          "name": "donatorhere",
          "type": "address"
        },
        {
          "indexed": false,
          "name": "receipienthere",
          "type": "address"
        },
        {
          "indexed": false,
          "name": "amounthere",
          "type": "uint256"
        }
      ],
      "name": "logdeposits",
      "type": "event",
      "signature": "0x2d5850082aa06d4d84f7fd35d30c5007fbb5da417488a915ef296da60b59f034"
    },
    {
      "anonymous": false,
      "inputs": [
        {
          "indexed": false,
          "name": "from",
          "type": "address"
        },
        {
          "indexed": false,
          "name": "receipientaddress",
          "type": "address"
        },
        {
          "indexed": false,
          "name": "amount",
          "type": "uint256"
        }
      ],
      "name": "Sent",
      "type": "event",
      "signature": "0x3990db2d31862302a685e8086b5755072a6e2b5b780af1ee81ece35ee3cd3345"
    },
    {
      "constant": false,
      "inputs": [
        {
          "name": "enroller",
          "type": "address"
        },
        {
          "name": "hasenrolled",
          "type": "bool"
        }
      ],
      "name": "hasbeenenrolled",
      "outputs": [],
      "payable": false,
      "stateMutability": "nonpayable",
      "type": "function",
      "signature": "0x2e99a64c"
    },
    {
      "constant": false,
      "inputs": [
        {
          "name": "fellowowner",
          "type": "address"
        },
        {
          "name": "fellowreceiver",
          "type": "address"
        },
        {
          "name": "fellowpublickey",
          "type": "uint256"
        },
        {
          "name": "fellowcurrentownername",
          "type": "bytes32"
        },
        {
          "name": "fellowreceivername",
          "type": "bytes32"
        },
        {
          "name": "fellowcurrentprocessingfee",
          "type": "uint256"
        }
      ],
      "name": "ObtainProcessingEntity",
      "outputs": [],
      "payable": false,
      "stateMutability": "nonpayable",
      "type": "function",
      "signature": "0xb93591b3"
    },
    {
      "constant": false,
      "inputs": [
        {
          "name": "mybigrole",
          "type": "bytes32"
        },
        {
          "name": "mygreatbalance",
          "type": "uint256"
        },
        {
          "name": "mynicelocation",
          "type": "bytes32"
        },
        {
          "name": "ihavethisdrug",
          "type": "bool"
        },
        {
          "name": "ihaveescrowamount",
          "type": "uint256"
        },
        {
          "name": "ourlastdestination",
          "type": "address"
        },
        {
          "name": "lookmyjustendedaddress",
          "type": "address"
        }
      ],
      "name": "ObtainProcessingEntityDetails",
      "outputs": [],
      "payable": false,
      "stateMutability": "nonpayable",
      "type": "function",
      "signature": "0x896e02d9"
    },
    {
      "constant": false,
      "inputs": [
        {
          "name": "theRFIDofthisdrug",
          "type": "bytes32"
        },
        {
          "name": "manufacturerofdrugimustsend",
          "type": "address"
        },
        {
          "name": "iamcountingcurrentowners",
          "type": "uint256"
        }
      ],
      "name": "ObtainProcessingEntityStatus",
      "outputs": [],
      "payable": false,
      "stateMutability": "nonpayable",
      "type": "function",
      "signature": "0xeeaa4b19"
    },
    {
      "constant": false,
      "inputs": [
        {
          "name": "iamthecurrentdrugprocessor",
          "type": "address"
        },
        {
          "name": "thisisgoingtobeRFID",
          "type": "bytes32"
        },
        {
          "name": "thisismygreatestcost",
          "type": "uint256"
        },
        {
          "name": "tellmethedrugme",
          "type": "bytes32"
        }
      ],
      "name": "ObtainDrugInfo",
      "outputs": [],
      "payable": false,
      "stateMutability": "nonpayable",
      "type": "function",
      "signature": "0xd869d72e"
    },
    {
      "constant": false,
      "inputs": [
        {
          "name": "thetemperature",
          "type": "int256"
        },
        {
          "name": "theconcentration",
          "type": "int256"
        },
        {
          "name": "thegreatlocation",
          "type": "bytes32"
        },
        {
          "name": "thenumberofcountihave",
          "type": "uint256"
        },
        {
          "name": "themanufacturersihave",
          "type": "address"
        },
        {
          "name": "thedrugqualityihave",
          "type": "bytes32"
        }
      ],
      "name": "ObtainDrugInfoAdditional",
      "outputs": [],
      "payable": false,
      "stateMutability": "nonpayable",
      "type": "function",
      "signature": "0xf9f0b5b0"
    },
    {
      "constant": false,
      "inputs": [
        {
          "name": "escrowvalue",
          "type": "uint256"
        },
        {
          "name": "balancers",
          "type": "uint256"
        }
      ],
      "name": "createEscrow",
      "outputs": [],
      "payable": false,
      "stateMutability": "nonpayable",
      "type": "function",
      "signature": "0xc0a21d1f"
    },
    {
      "constant": false,
      "inputs": [
        {
          "name": "escrowparticipator",
          "type": "address"
        },
        {
          "name": "escrowparticipatorname",
          "type": "bytes32"
        },
        {
          "name": "escrowparticipatoramount",
          "type": "uint256"
        },
        {
          "name": "v",
          "type": "uint256"
        }
      ],
      "name": "sendescrows",
      "outputs": [],
      "payable": true,
      "stateMutability": "payable",
      "type": "function",
      "signature": "0x27e9244c"
    },
    {
      "constant": false,
      "inputs": [
        {
          "name": "escrowparticipator",
          "type": "address"
        },
        {
          "name": "escrowparticipatorname",
          "type": "bytes32"
        },
        {
          "name": "escrowparticipatoramount",
          "type": "uint256"
        }
      ],
      "name": "sendescrow",
      "outputs": [],
      "payable": true,
      "stateMutability": "payable",
      "type": "function",
      "signature": "0x81f7edc9"
    },
    {
      "constant": false,
      "inputs": [
        {
          "name": "_escrowvictimaddress",
          "type": "address"
        },
        {
          "name": "_escrowvictimmame",
          "type": "bytes32"
        },
        {
          "name": "_escrowvictimmoney",
          "type": "uint256"
        }
      ],
      "name": "returnbackescrow",
      "outputs": [],
      "payable": true,
      "stateMutability": "payable",
      "type": "function",
      "signature": "0xd7b8be0b"
    },
    {
      "constant": false,
      "inputs": [
        {
          "name": "donator",
          "type": "address"
        },
        {
          "name": "receipient",
          "type": "address"
        },
        {
          "name": "amount",
          "type": "uint256"
        }
      ],
      "name": "deposit",
      "outputs": [],
      "payable": true,
      "stateMutability": "payable",
      "type": "function",
      "signature": "0x8340f549"
    },
    {
      "constant": false,
      "inputs": [
        {
          "name": "_receiver",
          "type": "address"
        },
        {
          "name": "_lastdestination",
          "type": "address"
        },
        {
          "name": "s",
          "type": "uint256"
        }
      ],
      "name": "checklastdestination",
      "outputs": [],
      "payable": false,
      "stateMutability": "nonpayable",
      "type": "function",
      "signature": "0x3809c825"
    },
    {
      "constant": false,
      "inputs": [
        {
          "name": "numOfDrugCounts",
          "type": "uint256"
        },
        {
          "name": "_lastdestination",
          "type": "address"
        }
      ],
      "name": "endphases",
      "outputs": [
        {
          "name": "",
          "type": "uint256"
        }
      ],
      "payable": false,
      "stateMutability": "nonpayable",
      "type": "function",
      "signature": "0x980aacae"
    },
    {
      "constant": false,
      "inputs": [
        {
          "name": "balanceamount",
          "type": "uint256"
        },
        {
          "name": "escrowbalancenow",
          "type": "uint256"
        }
      ],
      "name": "withdraw",
      "outputs": [],
      "payable": true,
      "stateMutability": "payable",
      "type": "function",
      "signature": "0x441a3e70"
    },
    {
      "constant": true,
      "inputs": [],
      "name": "balances",
      "outputs": [
        {
          "name": "",
          "type": "uint256"
        }
      ],
      "payable": false,
      "stateMutability": "view",
      "type": "function",
      "signature": "0x7bb98a68"
    },
    {
      "constant": false,
      "inputs": [
        {
          "name": "yourcurrentowner",
          "type": "address"
        },
        {
          "name": "amount",
          "type": "uint256"
        },
        {
          "name": "nonce",
          "type": "uint256"
        },
        {
          "name": "signature",
          "type": "bytes"
        },
        {
          "name": "receipientaddress",
          "type": "address"
        },
        {
          "name": "hashes",
          "type": "bytes32"
        }
      ],
      "name": "claimPayment",
      "outputs": [],
      "payable": true,
      "stateMutability": "payable",
      "type": "function",
      "signature": "0x930c8ee0"
    },
    {
      "constant": false,
      "inputs": [
        {
          "name": "newName",
          "type": "bytes32"
        },
        {
          "name": "oldName",
          "type": "bytes32"
        },
        {
          "name": "oldAddress",
          "type": "address"
        },
        {
          "name": "newAddress",
          "type": "address"
        },
        {
          "name": "_jushandedoveraddress",
          "type": "address"
        },
        {
          "name": "manufactureraddress",
          "type": "address"
        },
        {
          "name": "_RFID",
          "type": "bytes32"
        },
        {
          "name": "e",
          "type": "uint256"
        },
        {
          "name": "haspackage",
          "type": "bool"
        },
        {
          "name": "f",
          "type": "uint256"
        },
        {
          "name": "_currentownerprocessingfee",
          "type": "uint256"
        }
      ],
      "name": "changecurrentownership",
      "outputs": [],
      "payable": false,
      "stateMutability": "nonpayable",
      "type": "function",
      "signature": "0x39f73562"
    }
  ],
  "bytecode": "0x6080604052600260005573fd2c3e27bfaccf842424e48dc72cb18ba48e9457600160006101000a81548173ffffffffffffffffffffffffffffffffffffffff021916908373ffffffffffffffffffffffffffffffffffffffff160217905550600260009054906101000a900473ffffffffffffffffffffffffffffffffffffffff1673ffffffffffffffffffffffffffffffffffffffff1631600355600160009054906101000a900473ffffffffffffffffffffffffffffffffffffffff1673ffffffffffffffffffffffffffffffffffffffff1631600455600060165560006017553480156100ee57600080fd5b50615b1d80620000ff6000396000f3fe6080604052600436106101ac576000357c0100000000000000000000000000000000000000000000000000000000900463ffffffff168063013cf08b146101b1578063135aa1a4146102485780631dec8f5e1461034557806325686b261461037057806327e9244c146104785780632e99a64c146104da5780633809c8251461053757806339f73562146105b2578063441a3e70146106ac578063506535f3146106e457806350660346146107785780637bb98a68146107cf57806381f7edc9146107fa5780638340f54914610852578063896e02d9146108c05780638b4556ae146109655780639044aa7a14610a3d578063930c8ee014610a94578063980aacae14610bad578063a44dacdd14610c1c578063a491ead714610cb3578063a7bb580314610d97578063af1fba2f14610e7a578063b93591b314610f60578063bce6007b14610ff9578063be8a7719146110bb578063c0a21d1f146110e6578063cbf0b0c01461112b578063d2c5e34c1461116f578063d7b8be0b1461119a578063d869d72e146111f2578063eeaa4b1914611261578063f9eeaa05146112c6578063f9f0b5b0146113ac575b600080fd5b3480156101bd57600080fd5b506101ea600480360360208110156101d457600080fd5b810190808035906020019092919050505061142f565b604051808673ffffffffffffffffffffffffffffffffffffffff1673ffffffffffffffffffffffffffffffffffffffff1681526020018581526020018481526020018381526020018281526020019550505050505060405180910390f35b61032b6004803603606081101561025e57600080fd5b81019080803590602001909291908035906020019064010000000081111561028557600080fd5b82018360208201111561029757600080fd5b803590602001918460018302840111640100000000831117156102b957600080fd5b91908080601f016020809104026020016040519081016040528093929190818152602001838380828437600081840152601f19601f820116905080830192505050505050509192919290803573ffffffffffffffffffffffffffffffffffffffff169060200190929190505050611494565b604051808215151515815260200191505060405180910390f35b34801561035157600080fd5b5061035a61151f565b6040518082815260200191505060405180910390f35b34801561037c57600080fd5b506103a96004803603602081101561039357600080fd5b8101908080359060200190929190505050611525565b60405180898152602001881515151581526020018781526020018673ffffffffffffffffffffffffffffffffffffffff1673ffffffffffffffffffffffffffffffffffffffff1681526020018573ffffffffffffffffffffffffffffffffffffffff1673ffffffffffffffffffffffffffffffffffffffff1681526020018481526020018373ffffffffffffffffffffffffffffffffffffffff1673ffffffffffffffffffffffffffffffffffffffff1681526020018281526020019850505050505050505060405180910390f35b6104d86004803603608081101561048e57600080fd5b81019080803573ffffffffffffffffffffffffffffffffffffffff1690602001909291908035906020019092919080359060200190929190803590602001909291905050506115e9565b005b3480156104e657600080fd5b50610535600480360360408110156104fd57600080fd5b81019080803573ffffffffffffffffffffffffffffffffffffffff169060200190929190803515159060200190929190505050611942565b005b34801561054357600080fd5b506105b06004803603606081101561055a57600080fd5b81019080803573ffffffffffffffffffffffffffffffffffffffff169060200190929190803573ffffffffffffffffffffffffffffffffffffffff169060200190929190803590602001909291905050506119ed565b005b3480156105be57600080fd5b506106aa60048036036101608110156105d657600080fd5b810190808035906020019092919080359060200190929190803573ffffffffffffffffffffffffffffffffffffffff169060200190929190803573ffffffffffffffffffffffffffffffffffffffff169060200190929190803573ffffffffffffffffffffffffffffffffffffffff169060200190929190803573ffffffffffffffffffffffffffffffffffffffff16906020019092919080359060200190929190803590602001909291908035151590602001909291908035906020019092919080359060200190929190505050611c54565b005b6106e2600480360360408110156106c257600080fd5b8101908080359060200190929190803590602001909291905050506127df565b005b3480156106f057600080fd5b5061075e600480360360a081101561070757600080fd5b81019080803573ffffffffffffffffffffffffffffffffffffffff16906020019092919080359060200190929190803560ff1690602001909291908035906020019092919080359060200190929190505050612974565b604051808215151515815260200191505060405180910390f35b34801561078457600080fd5b5061078d612a49565b604051808273ffffffffffffffffffffffffffffffffffffffff1673ffffffffffffffffffffffffffffffffffffffff16815260200191505060405180910390f35b3480156107db57600080fd5b506107e4612a6f565b6040518082815260200191505060405180910390f35b6108506004803603606081101561081057600080fd5b81019080803573ffffffffffffffffffffffffffffffffffffffff1690602001909291908035906020019092919080359060200190929190505050612a7d565b005b6108be6004803603606081101561086857600080fd5b81019080803573ffffffffffffffffffffffffffffffffffffffff169060200190929190803573ffffffffffffffffffffffffffffffffffffffff16906020019092919080359060200190929190505050612c8c565b005b3480156108cc57600080fd5b50610963600480360360e08110156108e357600080fd5b8101908080359060200190929190803590602001909291908035906020019092919080351515906020019092919080359060200190929190803573ffffffffffffffffffffffffffffffffffffffff169060200190929190803573ffffffffffffffffffffffffffffffffffffffff169060200190929190505050612ef5565b005b34801561097157600080fd5b5061099e6004803603602081101561098857600080fd5b8101908080359060200190929190505050613134565b604051808973ffffffffffffffffffffffffffffffffffffffff1673ffffffffffffffffffffffffffffffffffffffff1681526020018881526020018781526020018681526020018581526020018473ffffffffffffffffffffffffffffffffffffffff1673ffffffffffffffffffffffffffffffffffffffff1681526020018381526020018281526020019850505050505050505060405180910390f35b348015610a4957600080fd5b50610a526131cb565b604051808273ffffffffffffffffffffffffffffffffffffffff1673ffffffffffffffffffffffffffffffffffffffff16815260200191505060405180910390f35b610bab600480360360c0811015610aaa57600080fd5b81019080803573ffffffffffffffffffffffffffffffffffffffff169060200190929190803590602001909291908035906020019092919080359060200190640100000000811115610afb57600080fd5b820183602082011115610b0d57600080fd5b80359060200191846001830284011164010000000083111715610b2f57600080fd5b91908080601f016020809104026020016040519081016040528093929190818152602001838380828437600081840152601f19601f820116905080830192505050505050509192919290803573ffffffffffffffffffffffffffffffffffffffff169060200190929190803590602001909291905050506131f1565b005b348015610bb957600080fd5b50610c0660048036036040811015610bd057600080fd5b8101908080359060200190929190803573ffffffffffffffffffffffffffffffffffffffff169060200190929190505050613465565b6040518082815260200191505060405180910390f35b348015610c2857600080fd5b50610c5560048036036020811015610c3f57600080fd5b8101908080359060200190929190505050613647565b604051808673ffffffffffffffffffffffffffffffffffffffff1673ffffffffffffffffffffffffffffffffffffffff1681526020018581526020018481526020018381526020018281526020019550505050505060405180910390f35b348015610cbf57600080fd5b50610cc86136ac565b60405180898152602001881515151581526020018781526020018673ffffffffffffffffffffffffffffffffffffffff1673ffffffffffffffffffffffffffffffffffffffff1681526020018573ffffffffffffffffffffffffffffffffffffffff1673ffffffffffffffffffffffffffffffffffffffff1681526020018481526020018373ffffffffffffffffffffffffffffffffffffffff1673ffffffffffffffffffffffffffffffffffffffff1681526020018281526020019850505050505050505060405180910390f35b610e5060048036036020811015610dad57600080fd5b8101908080359060200190640100000000811115610dca57600080fd5b820183602082011115610ddc57600080fd5b80359060200191846001830284011164010000000083111715610dfe57600080fd5b91908080601f016020809104026020016040519081016040528093929190818152602001838380828437600081840152601f19601f82011690508083019250505050505050919291929050505061374f565b604051808460ff1660ff168152602001838152602001828152602001935050505060405180910390f35b348015610e8657600080fd5b50610eb360048036036020811015610e9d57600080fd5b81019080803590602001909291905050506137c6565b604051808b73ffffffffffffffffffffffffffffffffffffffff1673ffffffffffffffffffffffffffffffffffffffff1681526020018a73ffffffffffffffffffffffffffffffffffffffff1673ffffffffffffffffffffffffffffffffffffffff1681526020018981526020018881526020018781526020018681526020018581526020018481526020018381526020018281526020019a505050505050505050505060405180910390f35b348015610f6c57600080fd5b50610ff7600480360360c0811015610f8357600080fd5b81019080803573ffffffffffffffffffffffffffffffffffffffff169060200190929190803573ffffffffffffffffffffffffffffffffffffffff16906020019092919080359060200190929190803590602001909291908035906020019092919080359060200190929190505050613869565b005b34801561100557600080fd5b5061100e613a5d565b604051808b73ffffffffffffffffffffffffffffffffffffffff1673ffffffffffffffffffffffffffffffffffffffff1681526020018a73ffffffffffffffffffffffffffffffffffffffff1673ffffffffffffffffffffffffffffffffffffffff1681526020018981526020018881526020018781526020018681526020018581526020018481526020018381526020018281526020019a505050505050505050505060405180910390f35b3480156110c757600080fd5b506110d0613adf565b6040518082815260200191505060405180910390f35b3480156110f257600080fd5b506111296004803603604081101561110957600080fd5b810190808035906020019092919080359060200190929190505050613ae5565b005b61116d6004803603602081101561114157600080fd5b81019080803573ffffffffffffffffffffffffffffffffffffffff169060200190929190505050613cdc565b005b34801561117b57600080fd5b50611184613d2f565b6040518082815260200191505060405180910390f35b6111f0600480360360608110156111b057600080fd5b81019080803573ffffffffffffffffffffffffffffffffffffffff1690602001909291908035906020019092919080359060200190929190505050613d35565b005b3480156111fe57600080fd5b5061125f6004803603608081101561121557600080fd5b81019080803573ffffffffffffffffffffffffffffffffffffffff169060200190929190803590602001909291908035906020019092919080359060200190929190505050613f44565b005b34801561126d57600080fd5b506112c46004803603606081101561128457600080fd5b8101908080359060200190929190803573ffffffffffffffffffffffffffffffffffffffff169060200190929190803590602001909291905050506140db565b005b3480156112d257600080fd5b506112ff600480360360208110156112e957600080fd5b8101908080359060200190929190505050614225565b604051808b73ffffffffffffffffffffffffffffffffffffffff1673ffffffffffffffffffffffffffffffffffffffff1681526020018a73ffffffffffffffffffffffffffffffffffffffff1673ffffffffffffffffffffffffffffffffffffffff1681526020018981526020018881526020018781526020018681526020018581526020018481526020018381526020018281526020019a505050505050505050505060405180910390f35b3480156113b857600080fd5b5061142d600480360360c08110156113cf57600080fd5b8101908080359060200190929190803590602001909291908035906020019092919080359060200190929190803573ffffffffffffffffffffffffffffffffffffffff169060200190929190803590602001909291905050506142c8565b005b60098181548110151561143e57fe5b90600052602060002090600602016000915090508060000160009054906101000a900473ffffffffffffffffffffffffffffffffffffffff16908060010154908060020154908060030154908060040154905085565b6000806000806114a38661374f565b92509250925060018784848460405160008152602001604052604051808581526020018460ff1660ff1681526020018381526020018281526020019450505050506020604051602081039080840390855afa158015611506573d6000803e3d6000fd5b5050506020604051035150600193505050509392505050565b60045481565b60218181548110151561153457fe5b90600052602060002090600902016000915090508060000154908060010160009054906101000a900460ff16908060020154908060030160009054906101000a900473ffffffffffffffffffffffffffffffffffffffff16908060040160009054906101000a900473ffffffffffffffffffffffffffffffffffffffff16908060050154908060060160009054906101000a900473ffffffffffffffffffffffffffffffffffffffff16908060070154905088565b6000602e600901819055506000601860070181905550602e600901546016819055506018600701546017819055506000602e600a016000602e6008015481526020019081526020016000206016546103e88110151561164457fe5b600b0201600901819055506000602e600a016000602e6008015481526020019081526020016000206016546103e88110151561167c57fe5b600b02016007018190555080602e600a016000602e6008015481526020019081526020016000206016546103e8811015156116b357fe5b600b02016009018190555060006018600801600060186005015481526020019081526020016000206017546103e8811015156116eb57fe5b60090201600201819055506000602e600a016000602e6008015481526020019081526020016000206016546103e88110151561172357fe5b600b02016007018190555083602e600a016000602e6008015481526020019081526020016000206016546103e88110151561175a57fe5b600b020160000160006101000a81548173ffffffffffffffffffffffffffffffffffffffff021916908373ffffffffffffffffffffffffffffffffffffffff16021790555082602e600a016000602e6008015481526020019081526020016000206016546103e8811015156117cb57fe5b600b020160030181905550816018600801600060186005015481526020019081526020016000206017546103e88110151561180257fe5b600902016002018190555061187b6018600801600060186005015481526020019081526020016000206017546103e88110151561183b57fe5b6009020160020154602e600a016000602e6008015481526020019081526020016000206016546103e88110151561186e57fe5b600b020160070154613ae5565b61193c602e600a016000602e6008015481526020019081526020016000206016546103e8811015156118a957fe5b600b020160000160009054906101000a900473ffffffffffffffffffffffffffffffffffffffff16602e600a016000602e6008015481526020019081526020016000206016546103e8811015156118fc57fe5b600b0201600301546018600801600060186005015481526020019081526020016000206017546103e88110151561192f57fe5b600902016002015461448f565b50505050565b600090506000602e60090181905550602e60090154601681905550600060186007018190555060186007015460178190555081602e600a016000602e6008015481526020019081526020016000206016546103e8811015156119a057fe5b600b020160000160006101000a81548173ffffffffffffffffffffffffffffffffffffffff021916908373ffffffffffffffffffffffffffffffffffffffff160217905550600190505050565b6000602e6009018190555060006018600701819055506000809050602e600901546016819055506018600701546017819055506000602e600a016000602e6008015481526020019081526020016000206016546103e881101515611a4d57fe5b600b02016009018190555081602e600a016000602e6008015481526020019081526020016000206016546103e881101515611a8457fe5b600b02016009018190555083602e600a016000602e6008015481526020019081526020016000206016546103e881101515611abb57fe5b600b020160010160006101000a81548173ffffffffffffffffffffffffffffffffffffffff021916908373ffffffffffffffffffffffffffffffffffffffff160217905550826018600801600060186005015481526020019081526020016000206017546103e881101515611b2c57fe5b6009020160030160006101000a81548173ffffffffffffffffffffffffffffffffffffffff021916908373ffffffffffffffffffffffffffffffffffffffff1602179055506018600801600060186005015481526020019081526020016000206017546103e881101515611b9c57fe5b6009020160030160009054906101000a900473ffffffffffffffffffffffffffffffffffffffff1673ffffffffffffffffffffffffffffffffffffffff16602e600a016000602e6008015481526020019081526020016000206016546103e881101515611c0557fe5b600b020160010160009054906101000a900473ffffffffffffffffffffffffffffffffffffffff1673ffffffffffffffffffffffffffffffffffffffff161415611c4e57600190505b50505050565b600080905060606000809050600080602e600901819055506000603b600a0181905550600060186007018190555089603b6009016000603b600201548152602001908152602001600020836103e881101515611cac57fe5b600b020160000160006101000a81548173ffffffffffffffffffffffffffffffffffffffff021916908373ffffffffffffffffffffffffffffffffffffffff16021790555088603b6009016000603b600201548152602001908152602001600020836103e881101515611d1b57fe5b600b020160020181905550603b600a01549150602e600901546016819055506018600701546017819055506000602e600a016000602e6008015481526020019081526020016000206016546103e881101515611d7357fe5b600b0201600701819055506000602e600a016000602e6008015481526020019081526020016000206016546103e881101515611dab57fe5b600b0201600901819055506000603b6009016000603b600201548152602001908152602001600020836103e881101515611de157fe5b600b0201600a018190555060006018600801600060186005015481526020019081526020016000206016546103e881101515611e1957fe5b60090201600201819055506000602e600a016000602e6008015481526020019081526020016000206016546103e881101515611e5157fe5b600b02016005018190555087602e600a016000602e6008015481526020019081526020016000206016546103e881101515611e8857fe5b600b02016009018190555085603b6009016000603b600201548152602001908152602001600020836103e881101515611ebd57fe5b600b0201600a0181905550866018600801600060186005015481526020019081526020016000206017546103e881101515611ef457fe5b6009020160010160006101000a81548160ff0219169083151502179055508a6018600801600060186005015481526020019081526020016000206017546103e881101515611f3e57fe5b6009020160040160006101000a81548173ffffffffffffffffffffffffffffffffffffffff021916908373ffffffffffffffffffffffffffffffffffffffff160217905550602e600a016000602e6008015481526020019081526020016000206016546103e881101515611fae57fe5b600b020160000160009054906101000a900473ffffffffffffffffffffffffffffffffffffffff1673ffffffffffffffffffffffffffffffffffffffff163373ffffffffffffffffffffffffffffffffffffffff16141580156120545750600115156018600801600060186005015481526020019081526020016000206017546103e88110151561203b57fe5b6009020160010160009054906101000a900460ff161515145b1561206257505050506127d2565b60006018600801600060186005015481526020019081526020016000206017546103e88110151561208f57fe5b6009020160010160006101000a81548160ff0219169083151502179055508d602e600a016000602e6008015481526020019081526020016000206016546103e8811015156120d957fe5b600b0201600301819055508c602e600a016000602e6008015481526020019081526020016000206016546103e88110151561211057fe5b600b020160000160006101000a81548173ffffffffffffffffffffffffffffffffffffffff021916908373ffffffffffffffffffffffffffffffffffffffff16021790555084602e600a016000602e6008015481526020019081526020016000206016546103e88110151561218157fe5b600b0201600501819055508e602e600a016000602e6008015481526020019081526020016000206016546103e8811015156121b857fe5b600b0201600401819055508b602e600a016000602e6008015481526020019081526020016000206016546103e8811015156121ef57fe5b600b020160010160006101000a81548173ffffffffffffffffffffffffffffffffffffffff021916908373ffffffffffffffffffffffffffffffffffffffff160217905550612318602e600a016000602e6008015481526020019081526020016000206016546103e88110151561226257fe5b600b020160010160009054906101000a900473ffffffffffffffffffffffffffffffffffffffff16602e600a016000602e6008015481526020019081526020016000206016546103e8811015156122b557fe5b600b0201600501548686602e600a016000602e6008015481526020019081526020016000206016546103e8811015156122ea57fe5b600b020160000160009054906101000a900473ffffffffffffffffffffffffffffffffffffffff1686614c40565b602e600a016000602e6008015481526020019081526020016000206016546103e88110151561234357fe5b600b020160050154602e600a016000602e6008015481526020019081526020016000206016546103e88110151561237657fe5b600b02016007016000828254019250508190555061244b602e600a016000602e6008015481526020019081526020016000206016546103e8811015156123b857fe5b600b020160000160009054906101000a900473ffffffffffffffffffffffffffffffffffffffff16602e600a016000602e6008015481526020019081526020016000206016546103e88110151561240b57fe5b600b0201600301546018600801600060186005015481526020019081526020016000206016546103e88110151561243e57fe5b6009020160020154614e19565b6018600801600060186005015481526020019081526020016000206016546103e88110151561247657fe5b6009020160020154602e600a016000602e6008015481526020019081526020016000206016546103e8811015156124a957fe5b600b020160070160008282540192505081905550602e600a016000602e6008015481526020019081526020016000206016546103e8811015156124e857fe5b600b020160040154602e600a016000602e6008015481526020019081526020016000206016546103e88110151561251b57fe5b600b020160030181905550602e600a016000602e6008015481526020019081526020016000206016546103e88110151561255157fe5b600b020160010160009054906101000a900473ffffffffffffffffffffffffffffffffffffffff16602e600a016000602e6008015481526020019081526020016000206016546103e8811015156125a457fe5b600b020160000160006101000a81548173ffffffffffffffffffffffffffffffffffffffff021916908373ffffffffffffffffffffffffffffffffffffffff160217905550336018600801600060186005015481526020019081526020016000206017546103e88110151561261557fe5b6009020160040160006101000a81548173ffffffffffffffffffffffffffffffffffffffff021916908373ffffffffffffffffffffffffffffffffffffffff160217905550603b6009016000603b600201548152602001908152602001600020826103e88110151561268357fe5b600b020160020154602e600a016000602e6008015481526020019081526020016000206016546103e8811015156126b657fe5b600b020160080181905550603b6009016000603b600201548152602001908152602001600020826103e8811015156126ea57fe5b600b020160000160009054906101000a900473ffffffffffffffffffffffffffffffffffffffff166018600801600060186005015481526020019081526020016000206017546103e88110151561273d57fe5b6009020160060160006101000a81548173ffffffffffffffffffffffffffffffffffffffff021916908373ffffffffffffffffffffffffffffffffffffffff16021790555060016018600801600060186005015481526020019081526020016000206017546103e8811015156127af57fe5b6009020160010160006101000a81548160ff021916908315150217905550505050505b5050505050505050505050565b600073fd2c3e27bfaccf842424e48dc72cb18ba48e94579050600080905060008090508390508273ffffffffffffffffffffffffffffffffffffffff163191506000602e6009018190555060006018600701819055506000602e60090181905560168190555060186007015460178190555082602e600a016000602e6008015481526020019081526020016000206016546103e88110151561287d57fe5b600b020160000160006101000a81548173ffffffffffffffffffffffffffffffffffffffff021916908373ffffffffffffffffffffffffffffffffffffffff16021790555060006018600801600060186005015481526020019081526020016000206017546103e8811015156128ef57fe5b6009020160020181905550846018600801600060186005015481526020019081526020016000206017546103e88110151561292657fe5b600902016002018190555061296d6018600801600060186005015481526020019081526020016000206017546103e88110151561295f57fe5b6009020160020154836158b6565b5050505050565b6000806129a6866040516020018082815260200191505060405160208183030381529060405280519060200120615953565b90508673ffffffffffffffffffffffffffffffffffffffff1660018287878760405160008152602001604052604051808581526020018460ff1660ff1681526020018381526020018281526020019450505050506020604051602081039080840390855afa158015612a1c573d6000803e3d6000fd5b5050506020604051035173ffffffffffffffffffffffffffffffffffffffff161491505095945050505050565b600160009054906101000a900473ffffffffffffffffffffffffffffffffffffffff1681565b6000612a796159ab565b5090565b6000602e6009018190555060006018600701819055506000602e60090181905560168190555060186007015460178190555082602e600a016000602e6008015481526020019081526020016000206016546103e881101515612adb57fe5b600b020160000160006101000a81548173ffffffffffffffffffffffffffffffffffffffff021916908373ffffffffffffffffffffffffffffffffffffffff16021790555081602e600a016000602e6008015481526020019081526020016000206016546103e881101515612b4c57fe5b600b02016003018190555060006018600801600060186005015481526020019081526020016000206017546103e881101515612b8457fe5b6009020160020181905550806018600801600060186005015481526020019081526020016000206017546103e881101515612bbb57fe5b6009020160020181905550612c87602e600a016000602e6008015481526020019081526020016000206016546103e881101515612bf457fe5b600b020160000160009054906101000a900473ffffffffffffffffffffffffffffffffffffffff16602e600a016000602e6008015481526020019081526020016000206016546103e881101515612c4757fe5b600b0201600301546018600801600060186005015481526020019081526020016000206017546103e881101515612c7a57fe5b600902016002015461448f565b505050565b6000602e6009018190555060006018600701819055506000602e60090181905560168190555060186007015460178190555082602e600a016000602e6008015481526020019081526020016000206016546103e881101515612cea57fe5b600b020160000160006101000a81548173ffffffffffffffffffffffffffffffffffffffff021916908373ffffffffffffffffffffffffffffffffffffffff16021790555081602e600a016000602e6008015481526020019081526020016000206016546103e881101515612d5b57fe5b600b020160010160006101000a81548173ffffffffffffffffffffffffffffffffffffffff021916908373ffffffffffffffffffffffffffffffffffffffff16021790555060006018600801600060186005015481526020019081526020016000206017546103e881101515612dcd57fe5b6009020160020181905550806018600801600060186005015481526020019081526020016000206017546103e881101515612e0457fe5b6009020160020181905550612ef0602e600a016000602e6008015481526020019081526020016000206016546103e881101515612e3d57fe5b600b020160000160009054906101000a900473ffffffffffffffffffffffffffffffffffffffff16602e600a016000602e6008015481526020019081526020016000206016546103e881101515612e9057fe5b600b020160010160009054906101000a900473ffffffffffffffffffffffffffffffffffffffff166018600801600060186005015481526020019081526020016000206017546103e881101515612ee357fe5b60090201600201546159b5565b505050565b6000602e60090181905550602e60090154601681905550600060186007018190555060186007015460178190555086602e600a016000602e6008015481526020019081526020016000206016546103e881101515612f4f57fe5b600b02016006018190555085602e600a016000602e6008015481526020019081526020016000206016546103e881101515612f8657fe5b600b020160070181905550846018600801600060186005015481526020019081526020016000206017546103e881101515612fbd57fe5b6009020160000181905550836018600801600060186005015481526020019081526020016000206017546103e881101515612ff457fe5b6009020160010160006101000a81548160ff021916908315150217905550826018600801600060186005015481526020019081526020016000206017546103e88110151561303e57fe5b6009020160020181905550816018600801600060186005015481526020019081526020016000206017546103e88110151561307557fe5b6009020160030160006101000a81548173ffffffffffffffffffffffffffffffffffffffff021916908373ffffffffffffffffffffffffffffffffffffffff160217905550806018600801600060186005015481526020019081526020016000206017546103e8811015156130e657fe5b6009020160040160006101000a81548173ffffffffffffffffffffffffffffffffffffffff021916908373ffffffffffffffffffffffffffffffffffffffff16021790555050505050505050565b602d8181548110151561314357fe5b90600052602060002090600b02016000915090508060000160009054906101000a900473ffffffffffffffffffffffffffffffffffffffff16908060010154908060020154908060030154908060040154908060050160009054906101000a900473ffffffffffffffffffffffffffffffffffffffff16908060060154908060080154905088565b600260009054906101000a900473ffffffffffffffffffffffffffffffffffffffff1681565b6000602e600901819055506000601860070181905550602e60090154601681905550601860070154601781905550600080905084905086602e600a016000602e6008015481526020019081526020016000206016546103e88110151561325357fe5b600b020160000160006101000a81548173ffffffffffffffffffffffffffffffffffffffff021916908373ffffffffffffffffffffffffffffffffffffffff16021790555082602e600a016000602e6008015481526020019081526020016000206016546103e8811015156132c457fe5b600b020160010160006101000a81548173ffffffffffffffffffffffffffffffffffffffff021916908373ffffffffffffffffffffffffffffffffffffffff16021790555060006018600801600060186005015481526020019081526020016000206017546103e88110151561333657fe5b6009020160020181905550856018600801600060186005015481526020019081526020016000206017546103e88110151561336d57fe5b600902016002018190555061345c602e600a016000602e6008015481526020019081526020016000206016546103e8811015156133a657fe5b600b020160000160009054906101000a900473ffffffffffffffffffffffffffffffffffffffff166018600801600060186005015481526020019081526020016000206017546103e8811015156133f957fe5b60090201600201548387602e600a016000602e6008015481526020019081526020016000206016546103e88110151561342e57fe5b600b020160010160009054906101000a900473ffffffffffffffffffffffffffffffffffffffff1687614c40565b50505050505050565b600080600090506000603b600a018190555060006018600701819055506018600701546017819055506000603b6009016000603b600201548152602001908152602001600020826103e8811015156134b957fe5b600b0201600a018190555083603b6009016000603b600201548152602001908152602001600020826103e8811015156134ee57fe5b600b0201600a0181905550826018600801600060186005015481526020019081526020016000206017546103e88110151561352557fe5b6009020160030160006101000a81548173ffffffffffffffffffffffffffffffffffffffff021916908373ffffffffffffffffffffffffffffffffffffffff1602179055506018600801600060186005015481526020019081526020016000206017546103e88110151561359557fe5b6009020160030160009054906101000a900473ffffffffffffffffffffffffffffffffffffffff1673ffffffffffffffffffffffffffffffffffffffff163373ffffffffffffffffffffffffffffffffffffffff16141561363f57603b600a0154905080806001019150905080603b6009016000603b600201548152602001908152602001600020826103e88110151561362b57fe5b600b0201600a018190555080915050613641565b505b92915050565b60088181548110151561365657fe5b90600052602060002090600602016000915090508060000160009054906101000a900473ffffffffffffffffffffffffffffffffffffffff16908060010154908060020154908060030154908060040154905085565b60188060000154908060010160009054906101000a900460ff16908060020154908060030160009054906101000a900473ffffffffffffffffffffffffffffffffffffffff16908060040160009054906101000a900473ffffffffffffffffffffffffffffffffffffffff16908060050154908060060160009054906101000a900473ffffffffffffffffffffffffffffffffffffffff16908060070154905088565b60008060006041845114151561376457600080fd5b604051602081015192506040810151915060ff604182015116935050601b8360ff16101561379357601b830192505b601b8360ff16141580156137ab5750601c8360ff1614155b156137be578282829250925092506137bf565b5b9193909250565b603a818154811015156137d557fe5b90600052602060002090600b02016000915090508060000160009054906101000a900473ffffffffffffffffffffffffffffffffffffffff16908060010160009054906101000a900473ffffffffffffffffffffffffffffffffffffffff169080600201549080600301549080600401549080600501549080600601549080600701549080600801549080600a015490508a565b6000602e60090181905550602e60090154601681905550600060186007018190555060186007015460178190555085602e600a016000602e6008015481526020019081526020016000206016546103e8811015156138c357fe5b600b020160000160006101000a81548173ffffffffffffffffffffffffffffffffffffffff021916908373ffffffffffffffffffffffffffffffffffffffff16021790555084602e600a016000602e6008015481526020019081526020016000206016546103e88110151561393457fe5b600b020160010160006101000a81548173ffffffffffffffffffffffffffffffffffffffff021916908373ffffffffffffffffffffffffffffffffffffffff16021790555083602e600a016000602e6008015481526020019081526020016000206016546103e8811015156139a557fe5b600b02016002018190555082602e600a016000602e6008015481526020019081526020016000206016546103e8811015156139dc57fe5b600b02016003018190555081602e600a016000602e6008015481526020019081526020016000206016546103e881101515613a1357fe5b600b02016004018190555080602e600a016000602e6008015481526020019081526020016000206016546103e881101515613a4a57fe5b600b020160050181905550505050505050565b602e8060000160009054906101000a900473ffffffffffffffffffffffffffffffffffffffff16908060010160009054906101000a900473ffffffffffffffffffffffffffffffffffffffff1690806002015490806003015490806004015490806005015490806006015490806007015490806008015490806009015490508a565b60005481565b6000602e600901819055506000601860070181905550602e600901546016819055506018600701546017819055506000602e600a016000602e6008015481526020019081526020016000206016546103e881101515613b4057fe5b600b02016007018190555060006018600801600060186005015481526020019081526020016000206017546103e881101515613b7857fe5b600902016002018190555080602e600a016000602e6008015481526020019081526020016000206016546103e881101515613baf57fe5b600b020160070181905550816018600801600060186005015481526020019081526020016000206017546103e881101515613be657fe5b60090201600201819055506004602e600a016000602e6008015481526020019081526020016000206016546103e881101515613c1e57fe5b600b020160070154811515613c2f57fe5b046018600801600060186005015481526020019081526020016000206017546103e881101515613c5b57fe5b60090201600201819055506018600801600060186005015481526020019081526020016000206017546103e881101515613c9157fe5b6009020160020154602e600a016000602e6008015481526020019081526020016000206016546103e881101515613cc457fe5b600b0201600701600082825403925050819055505050565b8073ffffffffffffffffffffffffffffffffffffffff163373ffffffffffffffffffffffffffffffffffffffff16141515613d1657600080fd5b3373ffffffffffffffffffffffffffffffffffffffff16ff5b60035481565b6000602e6009018190555060006018600701819055506000602e60090181905560168190555060186007015460178190555082602e600a016000602e6008015481526020019081526020016000206016546103e881101515613d9357fe5b600b020160000160006101000a81548173ffffffffffffffffffffffffffffffffffffffff021916908373ffffffffffffffffffffffffffffffffffffffff16021790555081602e600a016000602e6008015481526020019081526020016000206016546103e881101515613e0457fe5b600b02016003018190555060006018600801600060186005015481526020019081526020016000206017546103e881101515613e3c57fe5b6009020160020181905550806018600801600060186005015481526020019081526020016000206017546103e881101515613e7357fe5b6009020160020181905550613f3f602e600a016000602e6008015481526020019081526020016000206016546103e881101515613eac57fe5b600b020160000160009054906101000a900473ffffffffffffffffffffffffffffffffffffffff16602e600a016000602e6008015481526020019081526020016000206016546103e881101515613eff57fe5b600b0201600301546018600801600060186005015481526020019081526020016000206017546103e881101515613f3257fe5b6009020160020154614e19565b505050565b60008090506000603b600a01819055506000602e600901819055506000601860070181905550603b600a01549050602e60090154601681905550601860070154601781905550603b6009016000603b600201548152602001908152602001600020816103e881101515613fb357fe5b600b020160010160009054906101000a90505084603b6009016000603b600201548152602001908152602001600020826103e881101515613ff057fe5b600b020160010160006101000a81548173ffffffffffffffffffffffffffffffffffffffff021916908373ffffffffffffffffffffffffffffffffffffffff16021790555083603b6009016000603b600201548152602001908152602001600020826103e88110151561405f57fe5b600b02016002018190555082603b6009016000603b600201548152602001908152602001600020826103e88110151561409457fe5b600b02016004018190555081603b6009016000603b600201548152602001908152602001600020826103e8811015156140c957fe5b600b0201600301819055505050505050565b6000602e60090181905550602e6009015460168190555060006018600701819055506018600701546017819055506000602e600a016000602e6008015481526020019081526020016000206016546103e88110151561413657fe5b600b02016009018190555082602e600a016000602e6008015481526020019081526020016000206016546103e88110151561416d57fe5b600b020160080181905550816018600801600060186005015481526020019081526020016000206017546103e8811015156141a457fe5b6009020160060160006101000a81548173ffffffffffffffffffffffffffffffffffffffff021916908373ffffffffffffffffffffffffffffffffffffffff16021790555080602e600a016000602e6008015481526020019081526020016000206016546103e88110151561421557fe5b600b020160090181905550505050565b60398181548110151561423457fe5b90600052602060002090600b02016000915090508060000160009054906101000a900473ffffffffffffffffffffffffffffffffffffffff16908060010160009054906101000a900473ffffffffffffffffffffffffffffffffffffffff1690806002015490806003015490806004015490806005015490806006015490806007015490806008015490806009015490508a565b60008090506000603b600a01819055506000602e600901819055506000601860070181905550603b600a01549050602e6009015460168190555060186007015460178190555086603b6009016000603b600201548152602001908152602001600020826103e88110151561433857fe5b600b02016005018190555085603b6009016000603b600201548152602001908152602001600020826103e88110151561436d57fe5b600b02016006018190555084603b6009016000603b600201548152602001908152602001600020826103e8811015156143a257fe5b600b02016007018190555083603b6009016000603b600201548152602001908152602001600020826103e8811015156143d757fe5b600b0201600a018190555082603b6009016000603b600201548152602001908152602001600020826103e88110151561440c57fe5b600b020160000160006101000a81548173ffffffffffffffffffffffffffffffffffffffff021916908373ffffffffffffffffffffffffffffffffffffffff16021790555081603b6009016000603b600201548152602001908152602001600020826103e88110151561447b57fe5b600b02016008018190555050505050505050565b60008090506000600a6004018190555060008090506000600a60020181905550600a600401549150819050600a60000160009054906101000a90505084600a60050160008773ffffffffffffffffffffffffffffffffffffffff1673ffffffffffffffffffffffffffffffffffffffff168152602001908152602001600020826103e88110151561451c57fe5b6006020160000160006101000a81548173ffffffffffffffffffffffffffffffffffffffff021916908373ffffffffffffffffffffffffffffffffffffffff16021790555083600a60050160008773ffffffffffffffffffffffffffffffffffffffff1673ffffffffffffffffffffffffffffffffffffffff168152602001908152602001600020826103e8811015156145b257fe5b60060201600101819055506000600a60050160008773ffffffffffffffffffffffffffffffffffffffff1673ffffffffffffffffffffffffffffffffffffffff168152602001908152602001600020826103e88110151561460f57fe5b600602016002018190555082600a60050160008773ffffffffffffffffffffffffffffffffffffffff1673ffffffffffffffffffffffffffffffffffffffff168152602001908152602001600020826103e88110151561466b57fe5b60060201600201819055507f40ec2f3ec98d49af1ad53e142b599d19b76ce8f5bb674ae8ec4d4876bcb1680b600160009054906101000a900473ffffffffffffffffffffffffffffffffffffffff16600a60050160008873ffffffffffffffffffffffffffffffffffffffff1673ffffffffffffffffffffffffffffffffffffffff168152602001908152602001600020836103e88110151561470a57fe5b6006020160000160009054906101000a900473ffffffffffffffffffffffffffffffffffffffff16600a60050160008973ffffffffffffffffffffffffffffffffffffffff1673ffffffffffffffffffffffffffffffffffffffff168152602001908152602001600020846103e88110151561478257fe5b6006020160020154604051808473ffffffffffffffffffffffffffffffffffffffff1673ffffffffffffffffffffffffffffffffffffffff1681526020018373ffffffffffffffffffffffffffffffffffffffff1673ffffffffffffffffffffffffffffffffffffffff168152602001828152602001935050505060405180910390a1600a60050160008673ffffffffffffffffffffffffffffffffffffffff1673ffffffffffffffffffffffffffffffffffffffff168152602001908152602001600020816103e88110151561485557fe5b6006020160000160009054906101000a900473ffffffffffffffffffffffffffffffffffffffff1673ffffffffffffffffffffffffffffffffffffffff166108fc600a60050160008873ffffffffffffffffffffffffffffffffffffffff1673ffffffffffffffffffffffffffffffffffffffff168152602001908152602001600020836103e8811015156148e657fe5b60060201600201549081150290604051600060405180830381858888f19350505050158015614919573d6000803e3d6000fd5b50600a60050160008673ffffffffffffffffffffffffffffffffffffffff1673ffffffffffffffffffffffffffffffffffffffff168152602001908152602001600020816103e88110151561496a57fe5b6006020160020154600460008282540192505081905550600960a060405190810160405280600a60050160008973ffffffffffffffffffffffffffffffffffffffff1673ffffffffffffffffffffffffffffffffffffffff168152602001908152602001600020846103e8811015156149df57fe5b6006020160000160009054906101000a900473ffffffffffffffffffffffffffffffffffffffff1673ffffffffffffffffffffffffffffffffffffffff168152602001600a60050160008973ffffffffffffffffffffffffffffffffffffffff1673ffffffffffffffffffffffffffffffffffffffff168152602001908152602001600020846103e881101515614a7257fe5b60060201600101548152602001600a60050160008973ffffffffffffffffffffffffffffffffffffffff1673ffffffffffffffffffffffffffffffffffffffff168152602001908152602001600020846103e881101515614acf57fe5b60060201600201548152602001600a60050160008973ffffffffffffffffffffffffffffffffffffffff1673ffffffffffffffffffffffffffffffffffffffff168152602001908152602001600020846103e881101515614b2c57fe5b60060201600301548152602001600a60050160008973ffffffffffffffffffffffffffffffffffffffff1673ffffffffffffffffffffffffffffffffffffffff168152602001908152602001600020846103e881101515614b8957fe5b60060201600401548152509080600181540180825580915050906001820390600052602060002090600602016000909192909190915060008201518160000160006101000a81548173ffffffffffffffffffffffffffffffffffffffff021916908373ffffffffffffffffffffffffffffffffffffffff1602179055506020820151816001015560408201518160020155606082015181600301556080820151816004015550505080806001019150505050505050565b60008090508590506000809050600080905086905088600260006101000a81548173ffffffffffffffffffffffffffffffffffffffff021916908373ffffffffffffffffffffffffffffffffffffffff1602179055506007600082815260200190815260200160002060009054906101000a900460ff16151515614cc357600080fd5b60016007600089815260200190815260200160002060006101000a81548160ff02191690831515021790555060011515614cfe85888c611494565b1515141515614d0c57600080fd5b8473ffffffffffffffffffffffffffffffffffffffff166108fc899081150290604051600060405180830381858888f19350505050158015614d52573d6000803e3d6000fd5b50878573ffffffffffffffffffffffffffffffffffffffff16310391507f3990db2d31862302a685e8086b5755072a6e2b5b780af1ee81ece35ee3cd334589868a604051808473ffffffffffffffffffffffffffffffffffffffff1673ffffffffffffffffffffffffffffffffffffffff1681526020018373ffffffffffffffffffffffffffffffffffffffff1673ffffffffffffffffffffffffffffffffffffffff168152602001828152602001935050505060405180910390a1505050505050505050565b6000809050600080905060008090506000601060040181905550600a60000160009054906101000a9050506000601060050160008873ffffffffffffffffffffffffffffffffffffffff1673ffffffffffffffffffffffffffffffffffffffff168152602001908152602001600020836103e881101515614e9657fe5b600602016002018190555083601060050160008873ffffffffffffffffffffffffffffffffffffffff1673ffffffffffffffffffffffffffffffffffffffff168152602001908152602001600020836103e881101515614ef257fe5b600602016002018190555084601060050160008873ffffffffffffffffffffffffffffffffffffffff1673ffffffffffffffffffffffffffffffffffffffff168152602001908152602001600020836103e881101515614f4e57fe5b600602016001018190555085601060050160008873ffffffffffffffffffffffffffffffffffffffff1673ffffffffffffffffffffffffffffffffffffffff168152602001908152602001600020836103e881101515614faa57fe5b6006020160000160006101000a81548173ffffffffffffffffffffffffffffffffffffffff021916908373ffffffffffffffffffffffffffffffffffffffff1602179055508573ffffffffffffffffffffffffffffffffffffffff16600a6005016000600a60000160009054906101000a900473ffffffffffffffffffffffffffffffffffffffff1673ffffffffffffffffffffffffffffffffffffffff1673ffffffffffffffffffffffffffffffffffffffff168152602001908152602001600020846103e88110151561507b57fe5b6006020160000160009054906101000a900473ffffffffffffffffffffffffffffffffffffffff1673ffffffffffffffffffffffffffffffffffffffff161415156150c557600080fd5b60106004015460068190555060066000815480929190600101919050559150601060000160009054906101000a90505085601060050160008873ffffffffffffffffffffffffffffffffffffffff1673ffffffffffffffffffffffffffffffffffffffff168152602001908152602001600020836103e88110151561514657fe5b6006020160000160006101000a81548173ffffffffffffffffffffffffffffffffffffffff021916908373ffffffffffffffffffffffffffffffffffffffff160217905550600a6005016000600a60000160009054906101000a900473ffffffffffffffffffffffffffffffffffffffff1673ffffffffffffffffffffffffffffffffffffffff1673ffffffffffffffffffffffffffffffffffffffff168152602001908152602001600020836103e88110151561520057fe5b6006020160020154601060050160008873ffffffffffffffffffffffffffffffffffffffff1673ffffffffffffffffffffffffffffffffffffffff168152602001908152602001600020836103e88110151561525857fe5b6006020160020181905550600a6005016000600a60000160009054906101000a900473ffffffffffffffffffffffffffffffffffffffff1673ffffffffffffffffffffffffffffffffffffffff1673ffffffffffffffffffffffffffffffffffffffff168152602001908152602001600020836103e8811015156152d857fe5b6006020160000160009054906101000a900473ffffffffffffffffffffffffffffffffffffffff16601060050160008873ffffffffffffffffffffffffffffffffffffffff1673ffffffffffffffffffffffffffffffffffffffff168152602001908152602001600020836103e88110151561535057fe5b6006020160000160006101000a81548173ffffffffffffffffffffffffffffffffffffffff021916908373ffffffffffffffffffffffffffffffffffffffff160217905550601060050160008773ffffffffffffffffffffffffffffffffffffffff1673ffffffffffffffffffffffffffffffffffffffff168152602001908152602001600020826103e8811015156153e557fe5b600602016002015490506000601060050160008873ffffffffffffffffffffffffffffffffffffffff1673ffffffffffffffffffffffffffffffffffffffff168152602001908152602001600020836103e88110151561544157fe5b6006020160000160009054906101000a900473ffffffffffffffffffffffffffffffffffffffff169050600160009054906101000a900473ffffffffffffffffffffffffffffffffffffffff1673ffffffffffffffffffffffffffffffffffffffff163373ffffffffffffffffffffffffffffffffffffffff161415156154c757600080fd5b600160009054906101000a900473ffffffffffffffffffffffffffffffffffffffff1673ffffffffffffffffffffffffffffffffffffffff166108fc839081150290604051600060405180830381858888f1935050505015801561552f573d6000803e3d6000fd5b5061553c826004546127df565b7f3990db2d31862302a685e8086b5755072a6e2b5b780af1ee81ece35ee3cd3345600160009054906101000a900473ffffffffffffffffffffffffffffffffffffffff168284604051808473ffffffffffffffffffffffffffffffffffffffff1673ffffffffffffffffffffffffffffffffffffffff1681526020018373ffffffffffffffffffffffffffffffffffffffff1673ffffffffffffffffffffffffffffffffffffffff168152602001828152602001935050505060405180910390a1600860a060405190810160405280601060050160008b73ffffffffffffffffffffffffffffffffffffffff1673ffffffffffffffffffffffffffffffffffffffff168152602001908152602001600020866103e88110151561565b57fe5b6006020160000160009054906101000a900473ffffffffffffffffffffffffffffffffffffffff1673ffffffffffffffffffffffffffffffffffffffff168152602001601060050160008b73ffffffffffffffffffffffffffffffffffffffff1673ffffffffffffffffffffffffffffffffffffffff168152602001908152602001600020866103e8811015156156ee57fe5b60060201600101548152602001601060050160008b73ffffffffffffffffffffffffffffffffffffffff1673ffffffffffffffffffffffffffffffffffffffff168152602001908152602001600020866103e88110151561574b57fe5b60060201600201548152602001601060050160008b73ffffffffffffffffffffffffffffffffffffffff1673ffffffffffffffffffffffffffffffffffffffff168152602001908152602001600020866103e8811015156157a857fe5b60060201600301548152602001601060050160008b73ffffffffffffffffffffffffffffffffffffffff1673ffffffffffffffffffffffffffffffffffffffff168152602001908152602001600020866103e88110151561580557fe5b60060201600401548152509080600181540180825580915050906001820390600052602060002090600602016000909192909190915060008201518160000160006101000a81548173ffffffffffffffffffffffffffffffffffffffff021916908373ffffffffffffffffffffffffffffffffffffffff1602179055506020820151816001015560408201518160020155606082015181600301556080820151816004015550505050505050505050565b600091506000905080600481905550600454821115151561593f576040517f08c379a00000000000000000000000000000000000000000000000000000000081526004018080602001828103825260158152602001807f496e73756666696369656e742062616c616e63652e000000000000000000000081525060200191505060405180910390fd5b816004600082825403925050819055505050565b60008160405160200180807f19457468657265756d205369676e6564204d6573736167653a0a333200000000815250601c01828152602001915050604051602081830303815290604052805190602001209050919050565b6000600454905090565b8273ffffffffffffffffffffffffffffffffffffffff166108fc829081150290604051600060405180830381858888f193505050501580156159fb573d6000803e3d6000fd5b508060046000828254019250508190555081600160006101000a81548173ffffffffffffffffffffffffffffffffffffffff021916908373ffffffffffffffffffffffffffffffffffffffff1602179055507f2d5850082aa06d4d84f7fd35d30c5007fbb5da417488a915ef296da60b59f034838383604051808473ffffffffffffffffffffffffffffffffffffffff1673ffffffffffffffffffffffffffffffffffffffff1681526020018373ffffffffffffffffffffffffffffffffffffffff1673ffffffffffffffffffffffffffffffffffffffff168152602001828152602001935050505060405180910390a150505056fea165627a7a72305820faef0b1eca1f6116f95bd9055e6f3995291251ed4cfdb152b25504427ceea8d90029",
  "source": "pragma solidity >=0.4.0 <0.6.0;\r\n import \"./EscrowComplianceCecker.sol\";\r\n\r\ncontract Industry is EscrowComplianceCecker {\r\n// `TokenCreator` is a contract type that is defined below.\r\n// It is fine to reference it as long as it is not used\r\n// to create a new contract.\r\n\r\n\r\n\r\n\r\n\r\nuint i=0;\r\nuint strucount=0;\r\n\r\n\r\n//This is the Processing Entitiy , whether farmer, manufacturer or sales\r\n    \r\nstruct ProcessingEntity{\r\n    address payable currentowner;\r\n    address payable receiver;\r\n    uint256 publickey;\r\n    bytes32 currentownername;\r\n    bytes32 receivername;\r\n     uint256 currentownerprocessingfee;\r\n     bytes32 role;\r\n     uint balance;\r\n      bytes32 RFIDofdrugtobesent;\r\n    uint currentownerscount;\r\n   mapping (bytes32 => ProcessingEntity[1000]) processingentities;  \r\n}\r\n        struct ProcessingEntityStructure{\r\n      bytes32 location;\r\n     bool hasdrug;\r\n     \r\n     uint escrowamount;\r\n     address payable lastdestination;\r\n     address payable justhandedoveraddres;\r\n     bytes32 RFIDofthisdrug;\r\n     address payable manufacturerofdrugstobesent;\r\n    \r\n\r\n     uint currentpersoncount;\r\n    mapping (bytes32 => ProcessingEntityStructure[1000]) ProcessingEntityStructures;\r\n}\r\n\r\n //This is the drug\r\n\r\nstruct Drug{\r\n    address payable manufacturer;\r\n    address payable currentdrugpossessor;\r\n      bytes32 RFID;\r\n    \r\n      bytes32 drugname;\r\n      uint cost;\r\n     int temperature;\r\n     int concentration;\r\n     bytes32 location;\r\n     bytes32 drugquality;\r\n   \r\n  mapping (bytes32 => Drug[1000]) drugs;\r\n    uint numOfDrugCount;\r\n    \r\n}\r\n\r\n\r\n\r\n// This is the nuber of phases that has taken place \r\n// We are tokenizing the process\r\n\r\nstruct Processes{\r\n      address currentproces;\r\n      bytes32 timestamp;\r\n      bytes32 drugname;\r\n      uint numberofProcessingEntities;\r\n      \r\n     \r\n      bytes32 location;\r\n      address payable receipient;\r\n      uint escrowvalue;\r\n   \r\n   mapping (address => ProcessingEntity) Processingentities;\r\n     uint256 numOfProcesses;\r\n   mapping (uint => Processes) processbatch;\r\n   mapping (bytes32 => Drug[1000]) drugRFID;\r\n\r\n      }\r\n      \r\n\r\nProcessingEntityStructure public processingstructures;\r\nProcessingEntityStructure[] public processingstructureses;\r\n\r\nProcesses procedure;\r\nProcesses[] public procedures;\r\n\r\nProcessingEntity public procent;\r\n\r\nProcessingEntity[] public  procenter;\r\n\r\n\r\nDrug[] public self;\r\n Drug me;\r\n//This is the Industry's constructor\r\n/*  constructor(bytes32  _name, address currentowners, uint c ) public {\r\n i = c;\r\n   procent.currentownername = _name;\r\n     procent.currentowner = currentowners;\r\n\r\n       procent.currentowner = msg.sender;\r\n\r\n}\r\n \r\n*/\r\n//Now we will engage the processing phase here \r\nevent whatnewProcessingPhase (address payable _sender, bytes32 _sendername,address payable _receipient, bytes32 receipientname,bytes32 _RFID, address payable  _lastdestination,  uint256 processesnumber);\r\nfunction newProcessingPhase (address payable _sender, bytes32 _sendername,address payable _receipient, bytes32 receipientname,bytes32 _RFID, address payable  _lastdestination,  uint256 processesnumber)  internal {\r\n\r\n\r\n\r\n bool hasenrolleded = false;\r\n \r\n uint numOfDrugCount =0;\r\n  uint currentownerscount=0;\r\n  uint currentpersoncount=0;\r\n \r\n  \r\n   me.drugs;\r\n   procent.currentownerscount =0;\r\n   procedure.numOfProcesses=0;\r\n\r\n   \r\n   procedure.numOfProcesses = processesnumber;\r\n   \r\n   me.numOfDrugCount=0;\r\n   numOfDrugCount =  me.numOfDrugCount;\r\n   \r\n  \r\n procent.RFIDofdrugtobesent= _RFID;\r\n processingstructures.RFIDofthisdrug =_RFID;\r\n \r\n  \r\n\r\n  \r\n   \r\n  procent.currentowner = _sender;\r\n  procent.currentownername = _sendername;\r\n  procent.receiver = _receipient;\r\n  procent.receivername = receipientname;\r\n  processingstructures.lastdestination = _lastdestination;\r\n   me.RFID = _RFID;\r\n // me.numOfDrugCount= numOfDrugCount;\r\n  \r\n   \r\n    \r\n    \r\n\r\n\r\n     procent.processingentities[procent.RFIDofdrugtobesent][currentownerscount].currentownerscount =0;\r\n     procent.processingentities[procent.RFIDofdrugtobesent][currentownerscount].currentownerscount = procent.currentownerscount ;\r\n\r\n    //  self[me.RFID][numOfDrugCount] = Drug[self.RFID][numOfDrugCount];\r\n sendescrows(procenter[currentownerscount].currentowner, procenter[currentownerscount].currentownername, processingstructureses[currentpersoncount].escrowamount, procent.processingentities[procent.RFIDofdrugtobesent][currentownerscount].currentownerscount);    \r\n\r\n// SETTING UP!...Broke up the details because of deep stack depth\r\n\r\n//Setting Up Enemy Details\r\nObtainProcessingEntity(procent.processingentities[procent.RFIDofdrugtobesent][currentownerscount].currentowner,procent.processingentities[procent.RFIDofdrugtobesent][currentownerscount].receiver, procent.processingentities[procent.RFIDofdrugtobesent][currentownerscount].publickey,procent.processingentities[procent.RFIDofdrugtobesent][currentownerscount].currentownername,\r\n procent.processingentities[procent.RFIDofdrugtobesent][currentownerscount].receivername,procent.processingentities[procent.RFIDofdrugtobesent][currentownerscount].currentownerprocessingfee);\r\n\r\n// processingstructureses\r\n// Setting Up Next Escrow and Processamount\r\nObtainProcessingEntityDetails( procent.processingentities[procent.RFIDofdrugtobesent][currentownerscount].role,procent.processingentities[procent.RFIDofdrugtobesent][currentownerscount].balance,processingstructures.ProcessingEntityStructures[processingstructures.RFIDofthisdrug][currentpersoncount].location,processingstructures.ProcessingEntityStructures[processingstructures.RFIDofthisdrug][currentpersoncount].hasdrug,\r\nprocessingstructures.ProcessingEntityStructures[processingstructures.RFIDofthisdrug][currentpersoncount].escrowamount,processingstructures.ProcessingEntityStructures[processingstructures.RFIDofthisdrug][currentpersoncount].lastdestination,processingstructures.ProcessingEntityStructures[processingstructures.RFIDofthisdrug][currentpersoncount].justhandedoveraddres);\r\n\r\n// Setting Up More of People's Details\r\nObtainProcessingEntityStatus(procent.processingentities[procent.RFIDofdrugtobesent][currentownerscount].RFIDofdrugtobesent,processingstructures.ProcessingEntityStructures[processingstructures.RFIDofthisdrug][currentpersoncount].manufacturerofdrugstobesent,procent.processingentities[procent.RFIDofdrugtobesent][currentownerscount].currentownerscount);\r\n\r\n\r\n//SETTING UP MORE OF DRUGDETAILS.......\r\n ObtainDrugInfo(me.drugs[me.RFID][numOfDrugCount].currentdrugpossessor,\r\n    me.drugs[me.RFID][numOfDrugCount].RFID, me.drugs[me.RFID][numOfDrugCount].cost,me.drugs[me.RFID][numOfDrugCount].drugname);\r\n\r\n\r\n// Setting up the drug attributes\r\nObtainDrugInfoAdditional( me.drugs[me.RFID][numOfDrugCount].temperature,me.drugs[me.RFID][numOfDrugCount].concentration,me.drugs[me.RFID][numOfDrugCount].location, me.drugs[me.RFID][numOfDrugCount].numOfDrugCount, me.drugs[me.RFID][numOfDrugCount].manufacturer, me.drugs[me.RFID][numOfDrugCount].drugquality);\r\n\r\nemit whatnewProcessingPhase (procenter[currentownerscount].currentowner,procenter[currentownerscount].currentownername,procent.processingentities[procent.RFIDofdrugtobesent][currentownerscount].receiver, procent.processingentities[procent.RFIDofdrugtobesent][currentownerscount].receivername,procent.processingentities[procent.RFIDofdrugtobesent][currentownerscount].RFIDofdrugtobesent, processingstructures.ProcessingEntityStructures[processingstructures.RFIDofthisdrug][currentpersoncount].lastdestination,  procent.processingentities[procent.RFIDofdrugtobesent][currentownerscount].currentownerscount);\r\n\r\n self.push(Industry.Drug({\r\n      currentdrugpossessor: me.drugs[me.RFID][numOfDrugCount].currentdrugpossessor,\r\n      RFID:me.drugs[me.RFID][numOfDrugCount].RFID,\r\n      cost:me.drugs[me.RFID][numOfDrugCount].cost,\r\n      drugname:me.drugs[me.RFID][numOfDrugCount].drugname,\r\n      \r\n      \r\n      temperature:me.drugs[me.RFID][numOfDrugCount].temperature,\r\n       concentration:me.drugs[me.RFID][numOfDrugCount].concentration,\r\n        location:me.drugs[me.RFID][numOfDrugCount].location,\r\n         numOfDrugCount:me.drugs[me.RFID][numOfDrugCount].numOfDrugCount,\r\n         manufacturer: me.drugs[me.RFID][numOfDrugCount].manufacturer,\r\n         drugquality:me.drugs[me.RFID][numOfDrugCount].drugquality\r\n         // i have to ensure other details are kept\r\n      \r\n            \r\n     \r\n }));  \r\n \r\n   \r\n procenter.push(ProcessingEntity(\r\n     {\r\n      currentowner: procent.processingentities[procent.RFIDofdrugtobesent][currentownerscount].currentowner,\r\n      receiver:procent.processingentities[procent.RFIDofdrugtobesent][currentownerscount].receiver,\r\n      publickey:  procent.processingentities[procent.RFIDofdrugtobesent][currentownerscount].publickey,\r\n      currentownername: procent.processingentities[procent.RFIDofdrugtobesent][currentownerscount].currentownername,\r\n            receivername: procent.processingentities[procent.RFIDofdrugtobesent][currentownerscount].receivername,\r\n               currentownerprocessingfee:procent.processingentities[procent.RFIDofdrugtobesent][currentownerscount].currentownerprocessingfee,\r\n      role: procent.processingentities[procent.RFIDofdrugtobesent][currentownerscount].role,\r\n     balance: procent.processingentities[procent.RFIDofdrugtobesent][currentownerscount].balance,\r\n          \r\n          RFIDofdrugtobesent:procent.processingentities[procent.RFIDofdrugtobesent][currentownerscount].RFIDofdrugtobesent,\r\n        \r\n      currentownerscount:procent.processingentities[procent.RFIDofdrugtobesent][currentownerscount].currentownerscount\r\n        // I HAVE TO ADD THE OTHER DETAILS\r\n  \r\n   \r\n                           \r\n })); \r\n \r\n processingstructureses.push(ProcessingEntityStructure(\r\n     {\r\n      location:processingstructures.ProcessingEntityStructures[processingstructures.RFIDofthisdrug][currentpersoncount].location,\r\n     \r\n     \r\n     \r\n      hasdrug: processingstructures.ProcessingEntityStructures[processingstructures.RFIDofthisdrug][currentpersoncount].hasdrug,\r\n       escrowamount: processingstructures.ProcessingEntityStructures[processingstructures.RFIDofthisdrug][currentpersoncount].escrowamount,\r\n         lastdestination: processingstructures.ProcessingEntityStructures[processingstructures.RFIDofthisdrug][currentpersoncount].lastdestination,\r\n         justhandedoveraddres:processingstructures.ProcessingEntityStructures[processingstructures.RFIDofthisdrug][currentpersoncount].justhandedoveraddres,\r\n         \r\n          RFIDofthisdrug:processingstructures.ProcessingEntityStructures[processingstructures.RFIDofthisdrug][currentpersoncount].RFIDofthisdrug,\r\n          manufacturerofdrugstobesent:processingstructures.ProcessingEntityStructures[processingstructures.RFIDofthisdrug][currentpersoncount].manufacturerofdrugstobesent,\r\n      \r\n      currentpersoncount:processingstructures.ProcessingEntityStructures[processingstructures.RFIDofthisdrug][currentpersoncount].currentpersoncount\r\n        // I HAVE TO ADD THE OTHER DETAILS\r\n  \r\n   \r\n                           \r\n })); \r\n \r\n \r\n \r\n         \r\n     changecurrentownership( procent.processingentities[procent.RFIDofdrugtobesent][currentownerscount].receivername, procent.processingentities[procent.RFIDofdrugtobesent][currentownerscount].currentownername,\r\nprocent.processingentities[procent.RFIDofdrugtobesent][currentownerscount].currentowner,procent.processingentities[procent.RFIDofdrugtobesent][currentownerscount].receiver ,processingstructures.ProcessingEntityStructures[processingstructures.RFIDofthisdrug][currentpersoncount].justhandedoveraddres,processingstructures.ProcessingEntityStructures[processingstructures.RFIDofthisdrug][currentpersoncount].manufacturerofdrugstobesent,\r\nprocent.processingentities[procent.RFIDofdrugtobesent][currentownerscount].RFIDofdrugtobesent,procent.processingentities[procent.RFIDofdrugtobesent][currentownerscount].currentownerscount, processingstructures.ProcessingEntityStructures[processingstructures.RFIDofthisdrug][currentpersoncount].hasdrug,me.drugs[me.RFID][me.numOfDrugCount].numOfDrugCount, procent.processingentities[procent.RFIDofdrugtobesent][procent.currentownerscount].currentownerprocessingfee);\r\n     \r\n   \r\n    \r\n    hasbeenenrolled(procent.processingentities[procent.RFIDofdrugtobesent][currentownerscount].receiver,hasenrolleded);\r\n    checklastdestination(procent.processingentities[procent.RFIDofdrugtobesent][currentownerscount].receiver, processingstructures.ProcessingEntityStructures[processingstructures.RFIDofthisdrug][currentpersoncount].lastdestination,procent.processingentities[procent.RFIDofdrugtobesent][currentownerscount].currentownerscount);\r\n    endphases( numOfDrugCount,processingstructures.ProcessingEntityStructures[processingstructures.RFIDofthisdrug][currentpersoncount].lastdestination);\r\n       \r\n    \r\n     currentownerscount = currentownerscount++;\r\n   currentpersoncount = currentownerscount++;\r\n   procent.currentownerscount++;\r\n // numOfDrugCount =numOfDrugCount++;\r\n // numOfProcesses =numOfProcesses++;\r\n    }\r\n\r\n//function showDetails() public pure {\r\n    //we have to console.log() it;\r\n//    console.log();\r\n//}\r\n\r\n\r\n \r\n \r\n \r\n // This is where we get the whole the person from the industry's details\r\n \r\n \r\n  \r\n  // I am editing from here \r\n  \r\n  \r\n   function hasbeenenrolled (address payable enroller,bool hasenrolled) public\r\n   {  \r\n             hasenrolled = false;\r\n           procent.currentownerscount=0;\r\n           i =procent.currentownerscount;\r\n            processingstructures.currentpersoncount=0;\r\n     strucount =processingstructures.currentpersoncount;\r\n    \r\n   \r\n            procent.processingentities[procent.RFIDofdrugtobesent][i].currentowner= enroller;\r\n\r\n            hasenrolled = true;\r\n   }\r\n   \r\n\r\n\r\n\r\n   function ObtainProcessingEntity(address payable fellowowner, address payable fellowreceiver, uint256 fellowpublickey,bytes32 fellowcurrentownername,\r\n  bytes32 fellowreceivername,uint256 fellowcurrentprocessingfee) public  {\r\n    \r\n    me.RFID;\r\n    procent.RFIDofdrugtobesent;\r\n   \r\n    procent.currentownerscount=0;\r\n     i =procent.currentownerscount;\r\n      processingstructures.currentpersoncount=0;\r\n     strucount =processingstructures.currentpersoncount;\r\n    \r\n   \r\n    \r\n   procent.processingentities[procent.RFIDofdrugtobesent][i].currentowner=fellowowner;\r\n       procent.processingentities[procent.RFIDofdrugtobesent][i].receiver=fellowreceiver;\r\n        procent.processingentities[procent.RFIDofdrugtobesent][i].publickey=fellowpublickey;\r\n      procent.processingentities[procent.RFIDofdrugtobesent][i].currentownername =fellowcurrentownername;\r\n      procent.processingentities[procent.RFIDofdrugtobesent][i].receivername =fellowreceivername;\r\n\r\n      procent.processingentities[procent.RFIDofdrugtobesent][i].currentownerprocessingfee=fellowcurrentprocessingfee;\r\n      \r\n           \r\n  }\r\n \r\n \r\n \r\n   \r\n  function ObtainProcessingEntityDetails(bytes32 mybigrole,uint mygreatbalance,bytes32 mynicelocation, bool ihavethisdrug, uint ihaveescrowamount, address payable ourlastdestination,address payable  lookmyjustendedaddress) public {\r\n    me.RFID;\r\n    procent.RFIDofdrugtobesent;\r\n     \r\n     procent.currentownerscount=0;\r\n     i =procent.currentownerscount;\r\n     processingstructures.currentpersoncount=0;\r\n     strucount =processingstructures.currentpersoncount;\r\n    \r\n    \r\n       procent.processingentities[procent.RFIDofdrugtobesent][i].role=mybigrole;\r\n      procent.processingentities[procent.RFIDofdrugtobesent][i].balance=mygreatbalance;\r\n     processingstructures.ProcessingEntityStructures[processingstructures.RFIDofthisdrug][strucount].location=mynicelocation;\r\n     \r\n       processingstructures.ProcessingEntityStructures[processingstructures.RFIDofthisdrug][strucount].hasdrug=ihavethisdrug;\r\n      processingstructures.ProcessingEntityStructures[processingstructures.RFIDofthisdrug][strucount].escrowamount=ihaveescrowamount;\r\n        processingstructures.ProcessingEntityStructures[processingstructures.RFIDofthisdrug][strucount].lastdestination=ourlastdestination;\r\n        processingstructures.ProcessingEntityStructures[processingstructures.RFIDofthisdrug][strucount].justhandedoveraddres=lookmyjustendedaddress;\r\n         \r\n             \r\n          \r\n \r\n \r\n \r\n  }\r\n \r\n\r\n \r\n \r\n \r\n function ObtainProcessingEntityStatus(bytes32 theRFIDofthisdrug,address payable manufacturerofdrugimustsend,uint iamcountingcurrentowners) public {\r\n    me.RFID ;\r\n    procent.RFIDofdrugtobesent;\r\n    procent.currentownerscount=0;\r\n     i =procent.currentownerscount;\r\n      processingstructures.currentpersoncount=0;\r\n     strucount =processingstructures.currentpersoncount;\r\n    \r\n   procent.processingentities[procent.RFIDofdrugtobesent][i].currentownerscount=0;\r\n    \r\n        \r\n          procent.processingentities[procent.RFIDofdrugtobesent][i].RFIDofdrugtobesent=theRFIDofthisdrug;\r\n      processingstructures.ProcessingEntityStructures[processingstructures.RFIDofthisdrug][strucount].manufacturerofdrugstobesent=manufacturerofdrugimustsend;\r\n      \r\n      procent.processingentities[procent.RFIDofdrugtobesent][i].currentownerscount=iamcountingcurrentowners;\r\n     \r\n         \r\n \r\n \r\n \r\n  }\r\n \r\n \r\n  function ObtainDrugInfo(address payable iamthecurrentdrugprocessor,\r\n    bytes32 thisisgoingtobeRFID, uint thisismygreatestcost,bytes32 tellmethedrugme) public {\r\n     uint w = 0;\r\n    me.RFID ;\r\n    procent.RFIDofdrugtobesent;\r\n     me.numOfDrugCount=0;\r\n     procent.currentownerscount=0;\r\n      processingstructures.currentpersoncount=0;\r\n      w = me.numOfDrugCount;\r\n     i =procent.currentownerscount;\r\n     \r\n     strucount =processingstructures.currentpersoncount;\r\n    \r\n   \r\n    \r\n  \r\n      me.drugs[me.RFID][w].currentdrugpossessor;\r\n       me.drugs[me.RFID][w].currentdrugpossessor= iamthecurrentdrugprocessor;\r\n      me.drugs[me.RFID][w].RFID=thisisgoingtobeRFID;\r\n       me.drugs[me.RFID][w].cost=thisismygreatestcost;\r\n       me.drugs[me.RFID][w].drugname=tellmethedrugme;\r\n         \r\n          \r\n \r\n \r\n  }\r\n \r\n \r\n \r\n  function ObtainDrugInfoAdditional( int thetemperature, int theconcentration,bytes32  thegreatlocation, uint thenumberofcountihave, address payable themanufacturersihave, bytes32 thedrugqualityihave) public{\r\n    me.RFID;\r\n    procent.RFIDofdrugtobesent;\r\n     uint w=0;\r\n     me.numOfDrugCount=0;\r\n     procent.currentownerscount=0;\r\n      processingstructures.currentpersoncount=0;\r\n      w= me.numOfDrugCount;\r\n     i =procent.currentownerscount;\r\n      \r\n     strucount =processingstructures.currentpersoncount;\r\n    \r\n   \r\n   \r\n    me.drugs[me.RFID][w].temperature=thetemperature;\r\n        me.drugs[me.RFID][w].concentration=theconcentration;\r\n         me.drugs[me.RFID][w].location=thegreatlocation;\r\n          me.drugs[me.RFID][w].numOfDrugCount=thenumberofcountihave;\r\n         me.drugs[me.RFID][w].manufacturer=themanufacturersihave;\r\n        me.drugs[me.RFID][w].drugquality=thedrugqualityihave;\r\n    \r\n \r\n  }\r\n \r\n/* function PrintProcessingEntity(bytes32 _RFID) public returns(address payable a, address payable b, uint256 c,bytes32 d,\r\n  bytes32 e,uint256 f){\r\n    me.RFID =_RFID;\r\n    procent.RFIDofdrugtobesent=_RFID;\r\n     uint w = me.numOfDrugCount;\r\n     i =procent.currentownerscount;\r\n      processingstructures.currentpersoncount;\r\n     strucount =processingstructures.currentpersoncount;\r\n    \r\n   \r\n    \r\n   procent.processingentities[procent.RFIDofdrugtobesent][i].currentowner=a;\r\n       procent.processingentities[procent.RFIDofdrugtobesent][i].receiver=b;\r\n        procent.processingentities[procent.RFIDofdrugtobesent][i].publickey=c;\r\n      procent.processingentities[procent.RFIDofdrugtobesent][i].currentownername =d;\r\n      procent.processingentities[procent.RFIDofdrugtobesent][i].receivername =e;\r\n\r\n      procent.processingentities[procent.RFIDofdrugtobesent][i].currentownerprocessingfee=f;\r\n      \r\n     \r\n                      assert(procent.processingentities[procent.RFIDofdrugtobesent][i].RFIDofdrugtobesent==procent.RFIDofdrugtobesent); \r\n                       assert(me.drugs[me.RFID][w].RFID==me.RFID);\r\n         //       procent.processingentities[procent.RFIDofdrugtobesent][i];\r\n       \r\n      return (a,b,c,d,e,f );\r\n      \r\n  }\r\n\r\n  */\r\n  // I have processing entities here\r\n   \r\n  //The industry person has to oblidge to an escrow by making a small deposit\r\n function createEscrow(uint escrowvalue, uint balancers) public {\r\n  procent.currentownerscount=0;\r\n  processingstructures.currentpersoncount=0;\r\n  \r\n  i =procent.currentownerscount;\r\n   \r\n     strucount =processingstructures.currentpersoncount;\r\n    procent.processingentities[procent.RFIDofdrugtobesent][i].balance =0;\r\n    processingstructures.ProcessingEntityStructures[processingstructures.RFIDofthisdrug][strucount].escrowamount=0;\r\n  \r\n\r\n    procent.processingentities[procent.RFIDofdrugtobesent][i].balance=balancers;\r\n     processingstructures.ProcessingEntityStructures[processingstructures.RFIDofthisdrug][strucount].escrowamount = escrowvalue;\r\n       processingstructures.ProcessingEntityStructures[processingstructures.RFIDofthisdrug][strucount].escrowamount= procent.processingentities[procent.RFIDofdrugtobesent][i].balance/4;\r\n      procent.processingentities[procent.RFIDofdrugtobesent][i].balance-= processingstructures.ProcessingEntityStructures[processingstructures.RFIDofthisdrug][strucount].escrowamount;\r\n \r\n }\r\n \r\n  function sendescrows(address payable escrowparticipator, bytes32 escrowparticipatorname, uint escrowparticipatoramount, uint v) public payable {\r\n \r\n \r\n   procent.currentownerscount =0;\r\n   processingstructures.currentpersoncount=0;\r\n   \r\n       i =procent.currentownerscount;\r\n       \r\n     strucount =processingstructures.currentpersoncount;\r\n      procent.processingentities[procent.RFIDofdrugtobesent][i].currentownerscount=0;\r\n      procent.processingentities[procent.RFIDofdrugtobesent][i].balance=0;\r\n      \r\n \r\n       procent.processingentities[procent.RFIDofdrugtobesent][i].currentownerscount=v;\r\n    \r\n    processingstructures.ProcessingEntityStructures[processingstructures.RFIDofthisdrug][strucount].escrowamount=0;\r\n    procent.processingentities[procent.RFIDofdrugtobesent][i].balance =0;\r\n \r\n       procent.processingentities[procent.RFIDofdrugtobesent][i].currentowner= escrowparticipator;\r\n     procent.processingentities[procent.RFIDofdrugtobesent][i].currentownername=escrowparticipatorname;\r\n      processingstructures.ProcessingEntityStructures[processingstructures.RFIDofthisdrug][strucount].escrowamount =escrowparticipatoramount;\r\n        createEscrow( processingstructures.ProcessingEntityStructures[processingstructures.RFIDofthisdrug][strucount].escrowamount,procent.processingentities[procent.RFIDofdrugtobesent][i].balance);  \r\n        EscrowComplianceCecker.sendescrow( procent.processingentities[procent.RFIDofdrugtobesent][i].currentowner,procent.processingentities[procent.RFIDofdrugtobesent][i].currentownername,processingstructures.ProcessingEntityStructures[processingstructures.RFIDofthisdrug][strucount].escrowamount);\r\n      \r\n      \r\n  }\r\n  \r\n  function  sendescrow(address payable escrowparticipator, bytes32 escrowparticipatorname, uint escrowparticipatoramount) public payable {\r\n           procent.currentownerscount=0;\r\n          processingstructures.currentpersoncount=0;\r\n           i =procent.currentownerscount=0;\r\n           strucount =processingstructures.currentpersoncount;\r\n           \r\n            procent.processingentities[procent.RFIDofdrugtobesent][i].currentowner= escrowparticipator;\r\n     procent.processingentities[procent.RFIDofdrugtobesent][i].currentownername=escrowparticipatorname;\r\n    \r\n     processingstructures.ProcessingEntityStructures[processingstructures.RFIDofthisdrug][strucount].escrowamount=0;\r\n      processingstructures.ProcessingEntityStructures[processingstructures.RFIDofthisdrug][strucount].escrowamount= escrowparticipatoramount;\r\n       \r\n          EscrowComplianceCecker.sendescrow(procent.processingentities[procent.RFIDofdrugtobesent][i].currentowner,  procent.processingentities[procent.RFIDofdrugtobesent][i].currentownername, processingstructures.ProcessingEntityStructures[processingstructures.RFIDofthisdrug][strucount].escrowamount);\r\n      }\r\n      \r\n      \r\n      \r\n      function returnbackescrow (address payable _escrowvictimaddress, bytes32 _escrowvictimmame, uint _escrowvictimmoney) public payable{\r\n            \r\n              procent.currentownerscount=0;\r\n          processingstructures.currentpersoncount=0;\r\n           i =procent.currentownerscount=0;\r\n           strucount =processingstructures.currentpersoncount;\r\n           \r\n           \r\n               procent.processingentities[procent.RFIDofdrugtobesent][i].currentowner= _escrowvictimaddress;\r\n     procent.processingentities[procent.RFIDofdrugtobesent][i].currentownername=_escrowvictimmame;\r\n      processingstructures.ProcessingEntityStructures[processingstructures.RFIDofthisdrug][strucount].escrowamount=0;\r\n      processingstructures.ProcessingEntityStructures[processingstructures.RFIDofthisdrug][strucount].escrowamount= _escrowvictimmoney;\r\n    \r\n           \r\n             EscrowComplianceCecker.returnbackescrow(  procent.processingentities[procent.RFIDofdrugtobesent][i].currentowner,  procent.processingentities[procent.RFIDofdrugtobesent][i].currentownername, processingstructures.ProcessingEntityStructures[processingstructures.RFIDofthisdrug][strucount].escrowamount);\r\n      }\r\n      \r\n      function deposit(address payable donator, address payable receipient, uint amount) public payable {\r\n          \r\n          \r\n          procent.currentownerscount=0;\r\n          processingstructures.currentpersoncount=0;\r\n           i =procent.currentownerscount=0;\r\n           strucount =processingstructures.currentpersoncount;\r\n            procent.processingentities[procent.RFIDofdrugtobesent][i].currentowner= donator;\r\n           procent.processingentities[procent.RFIDofdrugtobesent][i].receiver=  receipient;\r\n           \r\n         processingstructures.ProcessingEntityStructures[processingstructures.RFIDofthisdrug][strucount].escrowamount=0;\r\n      processingstructures.ProcessingEntityStructures[processingstructures.RFIDofthisdrug][strucount].escrowamount= amount;\r\n    \r\n           \r\n        \r\n            EscrowComplianceCecker.deposit(procent.processingentities[procent.RFIDofdrugtobesent][i].currentowner,   procent.processingentities[procent.RFIDofdrugtobesent][i].receiver,  processingstructures.ProcessingEntityStructures[processingstructures.RFIDofthisdrug][strucount].escrowamount);   \r\n      }\r\n      \r\n      \r\n      \r\n      \r\n  \r\n // This is where we check the last destination to see if the drug has arrived mostly at point of purchase\r\n //In some cases different shops may buy assigning the last destination may be a bit tricky on that note\r\n function checklastdestination(address payable _receiver,address payable  _lastdestination,uint256 s) public {\r\n         procent.currentownerscount=0;\r\n          processingstructures.currentpersoncount=0;\r\n          bool _lastdestinationreached = false;\r\n       i =procent.currentownerscount;\r\n       \r\n     strucount =processingstructures.currentpersoncount;\r\n    \r\n   procent.processingentities[procent.RFIDofdrugtobesent][i].currentownerscount=0;\r\n    procent.processingentities[procent.RFIDofdrugtobesent][i].currentownerscount=s;\r\n       procent.processingentities[procent.RFIDofdrugtobesent][i].receiver=_receiver;\r\n       processingstructures.ProcessingEntityStructures[processingstructures.RFIDofthisdrug][strucount].lastdestination =_lastdestination;\r\n         if(procent.processingentities[procent.RFIDofdrugtobesent][i].receiver ==processingstructures.ProcessingEntityStructures[processingstructures.RFIDofthisdrug][strucount].lastdestination){\r\n              _lastdestinationreached = true;\r\n             \r\n         }\r\n }\r\n \r\n // We ensure that they verify so that we can show their details else escrow is launched;\r\n/* function checksignature() public {\r\n     \r\n     \r\n }\r\n */\r\n\r\n   //For each phase end it makes an incrament for another drug possibly\r\n\r\n  function endphases(uint numOfDrugCounts, address payable _lastdestination)  public  returns(uint){\r\n      //I have to add i\r\n  uint numOfDrugCount=0;\r\n   me.numOfDrugCount=0;\r\n   processingstructures.currentpersoncount=0;\r\n  \r\n    me.drugs;\r\n         \r\n     strucount =processingstructures.currentpersoncount;\r\n    \r\n me.drugs[me.RFID][numOfDrugCount].numOfDrugCount=0;\r\n        me.drugs[me.RFID][numOfDrugCount].numOfDrugCount= numOfDrugCounts;\r\n\r\n        processingstructures.ProcessingEntityStructures[processingstructures.RFIDofthisdrug][strucount].lastdestination =_lastdestination; \r\n        if(msg.sender ==  processingstructures.ProcessingEntityStructures[processingstructures.RFIDofthisdrug][strucount].lastdestination){\r\n          \r\n         numOfDrugCount=  me.numOfDrugCount;\r\n         numOfDrugCount =numOfDrugCount++;\r\n     me.drugs[me.RFID][numOfDrugCount].numOfDrugCount =  numOfDrugCount;\r\n       return numOfDrugCount;\r\n             \r\n }\r\n\r\n}\r\n\r\nfunction withdraw(uint balanceamount, uint escrowbalancenow) public payable  {\r\n        \r\n         address payable  escrowownaddresses=0xfd2C3e27BfACcf842424e48dC72cb18ba48E9457;\r\n          uint  escrowbalanceiers=0;\r\n          uint balanceleft =0;\r\n           balanceleft =escrowbalancenow;\r\n             escrowbalanceiers=escrowownaddresses.balance;\r\n         \r\n          procent.currentownerscount=0;\r\n          processingstructures.currentpersoncount=0;\r\n           i =procent.currentownerscount=0;\r\n           strucount =processingstructures.currentpersoncount;\r\n         \r\n        \r\n        \r\n          procent.processingentities[procent.RFIDofdrugtobesent][i].currentowner= escrowownaddresses;\r\n          \r\n           \r\n         processingstructures.ProcessingEntityStructures[processingstructures.RFIDofthisdrug][strucount].escrowamount=0;\r\n      processingstructures.ProcessingEntityStructures[processingstructures.RFIDofthisdrug][strucount].escrowamount= balanceamount;\r\n      \r\n    \r\n        \r\n        \r\n        \r\n         EscrowComplianceCecker.withdraw( processingstructures.ProcessingEntityStructures[processingstructures.RFIDofthisdrug][strucount].escrowamount,escrowbalanceiers);\r\n         \r\n          }\r\n     \r\n     function balances() public view returns(uint){\r\n          EscrowComplianceCecker.balances(); \r\n     }\r\n     \r\n     \r\n  function claimPayment(address payable  yourcurrentowner, uint256 amount, uint256 nonce, bytes memory  signature, address payable receipientaddress,bytes32 hashes)\r\npublic payable {\r\n    \r\n    \r\n    \r\n     procent.currentownerscount=0;\r\n          processingstructures.currentpersoncount=0;\r\n         \r\n       i =procent.currentownerscount;\r\n       \r\n     strucount =processingstructures.currentpersoncount;\r\n    \r\n  \r\n      uint256 mynonce=0;\r\n      mynonce =nonce;\r\n    \r\n      procent.processingentities[procent.RFIDofdrugtobesent][i].currentowner=  yourcurrentowner;\r\n      procent.processingentities[procent.RFIDofdrugtobesent][i].receiver =receipientaddress;\r\n    \r\n               processingstructures.ProcessingEntityStructures[processingstructures.RFIDofthisdrug][strucount].escrowamount=0;\r\n               processingstructures.ProcessingEntityStructures[processingstructures.RFIDofthisdrug][strucount].escrowamount= amount;\r\n    \r\n    EscrowComplianceCecker.claimPayment( procent.processingentities[procent.RFIDofdrugtobesent][i].currentowner,processingstructures.ProcessingEntityStructures[processingstructures.RFIDofthisdrug][strucount].escrowamount,mynonce, signature,   procent.processingentities[procent.RFIDofdrugtobesent][i].receiver,hashes);\r\n    \r\n}\r\n\r\n // Here is the place where we change ownership of the drug;\r\n   function  changecurrentownership (bytes32 newName, bytes32 oldName,address payable  oldAddress, address payable newAddress,address payable _jushandedoveraddress,address payable manufactureraddress, bytes32 _RFID,  uint e,  bool haspackage, uint f, uint256 _currentownerprocessingfee)  public  {\r\n  \r\n uint256 _nonce=0;\r\n  bytes memory _signature;\r\n   uint w=0;\r\n   bytes32 hashes;\r\n   \r\n  \r\nme.drugs;\r\n\r\nprocent.currentownerscount =0;\r\nme.numOfDrugCount=0;\r\nprocessingstructures.currentpersoncount=0;\r\n//  procent.currentownerscount =e;\r\n//    me.numOfDrugCount =   f;\r\n \r\n  me.drugs[me.RFID][w].manufacturer =manufactureraddress;\r\n    me.drugs[me.RFID][w].RFID = _RFID;\r\n  \r\n  w=me.numOfDrugCount;\r\n  i =procent.currentownerscount;\r\n //  processingstructures.currentpersoncount =e;\r\n     strucount =processingstructures.currentpersoncount;\r\n    \r\n     procent.processingentities[procent.RFIDofdrugtobesent][i].balance =0;\r\n      procent.processingentities[procent.RFIDofdrugtobesent][i].currentownerscount=0;\r\n       me.drugs[me.RFID][w].numOfDrugCount=0;\r\n        processingstructures.ProcessingEntityStructures[processingstructures.RFIDofthisdrug][i].escrowamount=0;\r\n        procent.processingentities[procent.RFIDofdrugtobesent][i].currentownerprocessingfee=0;\r\n\r\n        procent.processingentities[procent.RFIDofdrugtobesent][i].currentownerscount = e;\r\n        me.drugs[me.RFID][w].numOfDrugCount =f;\r\n   processingstructures.ProcessingEntityStructures[processingstructures.RFIDofthisdrug][strucount].hasdrug = haspackage;    \r\n     \r\n  processingstructures.ProcessingEntityStructures[processingstructures.RFIDofthisdrug][strucount].justhandedoveraddres =_jushandedoveraddress;\r\n      //Here is where we check to see if the mesage sender is really the person\r\n      //Here we have to add the drug, because the drug has to literally change hands;\r\n  if (msg.sender !=  procent.processingentities[procent.RFIDofdrugtobesent][i].currentowner &&processingstructures.ProcessingEntityStructures[processingstructures.RFIDofthisdrug][strucount].hasdrug==true) return;//This is optional\r\n                                     processingstructures.ProcessingEntityStructures[processingstructures.RFIDofthisdrug][strucount].hasdrug=false;\r\n                                      \r\n      procent.processingentities[procent.RFIDofdrugtobesent][i].currentownername = oldName;\r\n       procent.processingentities[procent.RFIDofdrugtobesent][i].currentowner= oldAddress;\r\n        procent.processingentities[procent.RFIDofdrugtobesent][i].currentownerprocessingfee = _currentownerprocessingfee;\r\n          procent.processingentities[procent.RFIDofdrugtobesent][i].receivername= newName;\r\n       procent.processingentities[procent.RFIDofdrugtobesent][i].receiver= newAddress;\r\n       \r\n       \r\n      \r\n      EscrowComplianceCecker.claimPayment( procent.processingentities[procent.RFIDofdrugtobesent][i].receiver, procent.processingentities[procent.RFIDofdrugtobesent][i].currentownerprocessingfee,_nonce,_signature, procent.processingentities[procent.RFIDofdrugtobesent][i].currentowner,hashes);\r\n                procent.processingentities[procent.RFIDofdrugtobesent][i].balance+= procent.processingentities[procent.RFIDofdrugtobesent][i].currentownerprocessingfee;\r\n       EscrowComplianceCecker.returnbackescrow (  procent.processingentities[procent.RFIDofdrugtobesent][i].currentowner,  procent.processingentities[procent.RFIDofdrugtobesent][i].currentownername, processingstructures.ProcessingEntityStructures[processingstructures.RFIDofthisdrug][i].escrowamount);\r\n       procent.processingentities[procent.RFIDofdrugtobesent][i].balance+=processingstructures.ProcessingEntityStructures[processingstructures.RFIDofthisdrug][i].escrowamount;\r\n       \r\n      // returnbackescrow (procent[i].currentowner,  procent[i].currentownername); \r\n     //LASTOWNER  WILL BE PAID HERE \r\n     \r\n       \r\n        procent.processingentities[procent.RFIDofdrugtobesent][i].currentownername=   procent.processingentities[procent.RFIDofdrugtobesent][i].receivername ;\r\n        procent.processingentities[procent.RFIDofdrugtobesent][i].currentowner = procent.processingentities[procent.RFIDofdrugtobesent][i].receiver;\r\n        processingstructures.ProcessingEntityStructures[processingstructures.RFIDofthisdrug][strucount].justhandedoveraddres = msg.sender;\r\n        procent.processingentities[procent.RFIDofdrugtobesent][i].RFIDofdrugtobesent =   me.drugs[me.RFID][w].RFID ;\r\n       processingstructures.ProcessingEntityStructures[processingstructures.RFIDofthisdrug][strucount].manufacturerofdrugstobesent = me.drugs[me.RFID][w].manufacturer;\r\n         processingstructures.ProcessingEntityStructures[processingstructures.RFIDofthisdrug][strucount].hasdrug = true; \r\n       //This is optional\r\n       \r\n}\r\n\r\n\r\n}\r\n",
  "sourcePath": "C:\\Users\\hp\\eth-thedrugtesttutor\\contracts\\Industry.sol",
  "compiler": {
    "name": "solc",
    "version": "0.5.0+commit.1d4f565a.Emscripten.clang"
  },
  "schemaVersion": "3.0.6",
  "updatedAt": "2019-06-28T08:18:17.403Z",
  "devdoc": {
    "methods": {}
  },
  "userdoc": {
    "methods": {
      "kill(address)": {
        "notice": "destroy the contract and reclaim the leftover funds."
      },
      "splitSignature(bytes)": {
        "notice": "signature methods."
      }
    }
  }
}